{
  "_format": "hh-sol-artifact-1",
  "contractName": "ArtAttribution",
  "sourceName": "contracts/ArtAttribution.sol",
  "abi": [
    {
      "inputs": [],
      "stateMutability": "nonpayable",
      "type": "constructor"
    },
    {
      "anonymous": false,
      "inputs": [
        {
          "indexed": false,
          "internalType": "uint256",
          "name": "certificateId",
          "type": "uint256"
        },
        {
          "indexed": true,
          "internalType": "address",
          "name": "owner",
          "type": "address"
        },
        {
          "indexed": false,
          "internalType": "uint256",
          "name": "collectionId",
          "type": "uint256"
        },
        {
          "indexed": false,
          "internalType": "string",
          "name": "certificateUri",
          "type": "string"
        }
      ],
      "name": "ArtworkAttributed",
      "type": "event"
    },
    {
      "anonymous": false,
      "inputs": [
        {
          "indexed": false,
          "internalType": "uint256",
          "name": "collectionId",
          "type": "uint256"
        },
        {
          "indexed": true,
          "internalType": "address",
          "name": "creator",
          "type": "address"
        },
        {
          "indexed": false,
          "internalType": "string",
          "name": "collectionUri",
          "type": "string"
        },
        {
          "indexed": false,
          "internalType": "uint256",
          "name": "totalAttributions",
          "type": "uint256"
        }
      ],
      "name": "CollectionCreated",
      "type": "event"
    },
    {
      "anonymous": false,
      "inputs": [
        {
          "indexed": true,
          "internalType": "uint256",
          "name": "memberId",
          "type": "uint256"
        },
        {
          "indexed": false,
          "internalType": "address",
          "name": "memberAddress",
          "type": "address"
        },
        {
          "indexed": false,
          "internalType": "string",
          "name": "dataUri",
          "type": "string"
        }
      ],
      "name": "NewMember",
      "type": "event"
    },
    {
      "inputs": [
        {
          "internalType": "string",
          "name": "dataUri",
          "type": "string"
        }
      ],
      "name": "addMember",
      "outputs": [
        {
          "internalType": "uint256",
          "name": "",
          "type": "uint256"
        }
      ],
      "stateMutability": "nonpayable",
      "type": "function"
    },
    {
      "inputs": [
        {
          "internalType": "uint256",
          "name": "",
          "type": "uint256"
        }
      ],
      "name": "artCollections",
      "outputs": [
        {
          "internalType": "uint256",
          "name": "collectionId",
          "type": "uint256"
        },
        {
          "internalType": "address payable",
          "name": "creator",
          "type": "address"
        },
        {
          "internalType": "string",
          "name": "collectionUri",
          "type": "string"
        },
        {
          "internalType": "uint256",
          "name": "totalAttributions",
          "type": "uint256"
        },
        {
          "internalType": "bool",
          "name": "exists",
          "type": "bool"
        }
      ],
      "stateMutability": "view",
      "type": "function"
    },
    {
      "inputs": [
        {
          "internalType": "uint256",
          "name": "",
          "type": "uint256"
        }
      ],
      "name": "attributionCertificates",
      "outputs": [
        {
          "internalType": "uint256",
          "name": "certificateId",
          "type": "uint256"
        },
        {
          "internalType": "address",
          "name": "owner",
          "type": "address"
        },
        {
          "internalType": "uint256",
          "name": "collectionId",
          "type": "uint256"
        },
        {
          "internalType": "string",
          "name": "certificateUri",
          "type": "string"
        },
        {
          "internalType": "bool",
          "name": "exists",
          "type": "bool"
        }
      ],
      "stateMutability": "view",
      "type": "function"
    },
    {
      "inputs": [],
      "name": "contract_creator",
      "outputs": [
        {
          "internalType": "address",
          "name": "",
          "type": "address"
        }
      ],
      "stateMutability": "view",
      "type": "function"
    },
    {
      "inputs": [
        {
          "internalType": "string",
          "name": "collectionUri",
          "type": "string"
        }
      ],
      "name": "createCollection",
      "outputs": [],
      "stateMutability": "nonpayable",
      "type": "function"
    },
    {
      "inputs": [],
      "name": "fetchAllCertificates",
      "outputs": [
        {
          "components": [
            {
              "internalType": "uint256",
              "name": "certificateId",
              "type": "uint256"
            },
            {
              "internalType": "address",
              "name": "owner",
              "type": "address"
            },
            {
              "internalType": "uint256",
              "name": "collectionId",
              "type": "uint256"
            },
            {
              "internalType": "string",
              "name": "certificateUri",
              "type": "string"
            },
            {
              "internalType": "bool",
              "name": "exists",
              "type": "bool"
            }
          ],
          "internalType": "struct ArtAttribution.AttributionCertificate[]",
          "name": "",
          "type": "tuple[]"
        }
      ],
      "stateMutability": "view",
      "type": "function"
    },
    {
      "inputs": [],
      "name": "fetchAllCollections",
      "outputs": [
        {
          "components": [
            {
              "internalType": "uint256",
              "name": "collectionId",
              "type": "uint256"
            },
            {
              "internalType": "address payable",
              "name": "creator",
              "type": "address"
            },
            {
              "internalType": "string",
              "name": "collectionUri",
              "type": "string"
            },
            {
              "internalType": "uint256",
              "name": "totalAttributions",
              "type": "uint256"
            },
            {
              "internalType": "bool",
              "name": "exists",
              "type": "bool"
            }
          ],
          "internalType": "struct ArtAttribution.ArtCollection[]",
          "name": "",
          "type": "tuple[]"
        }
      ],
      "stateMutability": "view",
      "type": "function"
    },
    {
      "inputs": [],
      "name": "fetchAllMembers",
      "outputs": [
        {
          "components": [
            {
              "internalType": "uint256",
              "name": "memberId",
              "type": "uint256"
            },
            {
              "internalType": "address",
              "name": "_address",
              "type": "address"
            },
            {
              "internalType": "string",
              "name": "dataUri",
              "type": "string"
            }
          ],
          "internalType": "struct ArtAttribution.Member[]",
          "name": "",
          "type": "tuple[]"
        }
      ],
      "stateMutability": "view",
      "type": "function"
    },
    {
      "inputs": [
        {
          "internalType": "uint256",
          "name": "_collectionId",
          "type": "uint256"
        },
        {
          "internalType": "string",
          "name": "certificateUri",
          "type": "string"
        }
      ],
      "name": "getAttributionCertificate",
      "outputs": [],
      "stateMutability": "payable",
      "type": "function"
    },
    {
      "inputs": [
        {
          "internalType": "uint256",
          "name": "id",
          "type": "uint256"
        }
      ],
      "name": "getCertificateById",
      "outputs": [
        {
          "components": [
            {
              "internalType": "uint256",
              "name": "certificateId",
              "type": "uint256"
            },
            {
              "internalType": "address",
              "name": "owner",
              "type": "address"
            },
            {
              "internalType": "uint256",
              "name": "collectionId",
              "type": "uint256"
            },
            {
              "internalType": "string",
              "name": "certificateUri",
              "type": "string"
            },
            {
              "internalType": "bool",
              "name": "exists",
              "type": "bool"
            }
          ],
          "internalType": "struct ArtAttribution.AttributionCertificate",
          "name": "",
          "type": "tuple"
        }
      ],
      "stateMutability": "view",
      "type": "function"
    },
    {
      "inputs": [
        {
          "internalType": "uint256",
          "name": "_certificateId",
          "type": "uint256"
        }
      ],
      "name": "getCertificateCollection",
      "outputs": [
        {
          "internalType": "uint256",
          "name": "",
          "type": "uint256"
        }
      ],
      "stateMutability": "view",
      "type": "function"
    },
    {
      "inputs": [
        {
          "internalType": "uint256",
          "name": "_certificateId",
          "type": "uint256"
        }
      ],
      "name": "getCertificateOwner",
      "outputs": [
        {
          "internalType": "address",
          "name": "",
          "type": "address"
        }
      ],
      "stateMutability": "view",
      "type": "function"
    },
    {
      "inputs": [
        {
          "internalType": "uint256",
          "name": "id",
          "type": "uint256"
        }
      ],
      "name": "getCollectionById",
      "outputs": [
        {
          "components": [
            {
              "internalType": "uint256",
              "name": "collectionId",
              "type": "uint256"
            },
            {
              "internalType": "address payable",
              "name": "creator",
              "type": "address"
            },
            {
              "internalType": "string",
              "name": "collectionUri",
              "type": "string"
            },
            {
              "internalType": "uint256",
              "name": "totalAttributions",
              "type": "uint256"
            },
            {
              "internalType": "bool",
              "name": "exists",
              "type": "bool"
            }
          ],
          "internalType": "struct ArtAttribution.ArtCollection",
          "name": "",
          "type": "tuple"
        }
      ],
      "stateMutability": "view",
      "type": "function"
    },
    {
      "inputs": [
        {
          "internalType": "address",
          "name": "_address",
          "type": "address"
        }
      ],
      "name": "getMemberByAddress",
      "outputs": [
        {
          "components": [
            {
              "internalType": "uint256",
              "name": "memberId",
              "type": "uint256"
            },
            {
              "internalType": "address",
              "name": "_address",
              "type": "address"
            },
            {
              "internalType": "string",
              "name": "dataUri",
              "type": "string"
            }
          ],
          "internalType": "struct ArtAttribution.Member",
          "name": "",
          "type": "tuple"
        }
      ],
      "stateMutability": "view",
      "type": "function"
    },
    {
      "inputs": [
        {
          "internalType": "uint256",
          "name": "id",
          "type": "uint256"
        }
      ],
      "name": "getMemberById",
      "outputs": [
        {
          "components": [
            {
              "internalType": "uint256",
              "name": "memberId",
              "type": "uint256"
            },
            {
              "internalType": "address",
              "name": "_address",
              "type": "address"
            },
            {
              "internalType": "string",
              "name": "dataUri",
              "type": "string"
            }
          ],
          "internalType": "struct ArtAttribution.Member",
          "name": "",
          "type": "tuple"
        }
      ],
      "stateMutability": "view",
      "type": "function"
    },
    {
      "inputs": [
        {
          "internalType": "address",
          "name": "owner",
          "type": "address"
        }
      ],
      "name": "getOwnedCertificates",
      "outputs": [
        {
          "components": [
            {
              "internalType": "uint256",
              "name": "certificateId",
              "type": "uint256"
            },
            {
              "internalType": "address",
              "name": "owner",
              "type": "address"
            },
            {
              "internalType": "uint256",
              "name": "collectionId",
              "type": "uint256"
            },
            {
              "internalType": "string",
              "name": "certificateUri",
              "type": "string"
            },
            {
              "internalType": "bool",
              "name": "exists",
              "type": "bool"
            }
          ],
          "internalType": "struct ArtAttribution.AttributionCertificate[]",
          "name": "",
          "type": "tuple[]"
        }
      ],
      "stateMutability": "view",
      "type": "function"
    },
    {
      "inputs": [
        {
          "internalType": "address",
          "name": "creator",
          "type": "address"
        }
      ],
      "name": "getOwnedCollections",
      "outputs": [
        {
          "components": [
            {
              "internalType": "uint256",
              "name": "collectionId",
              "type": "uint256"
            },
            {
              "internalType": "address payable",
              "name": "creator",
              "type": "address"
            },
            {
              "internalType": "string",
              "name": "collectionUri",
              "type": "string"
            },
            {
              "internalType": "uint256",
              "name": "totalAttributions",
              "type": "uint256"
            },
            {
              "internalType": "bool",
              "name": "exists",
              "type": "bool"
            }
          ],
          "internalType": "struct ArtAttribution.ArtCollection[]",
          "name": "",
          "type": "tuple[]"
        }
      ],
      "stateMutability": "view",
      "type": "function"
    },
    {
      "inputs": [
        {
          "internalType": "uint256",
          "name": "",
          "type": "uint256"
        }
      ],
      "name": "members",
      "outputs": [
        {
          "internalType": "uint256",
          "name": "memberId",
          "type": "uint256"
        },
        {
          "internalType": "address",
          "name": "_address",
          "type": "address"
        },
        {
          "internalType": "string",
          "name": "dataUri",
          "type": "string"
        }
      ],
      "stateMutability": "view",
      "type": "function"
    }
  ],
  "bytecode": "0x608060405234801561001057600080fd5b5033600660006101000a81548173ffffffffffffffffffffffffffffffffffffffff021916908373ffffffffffffffffffffffffffffffffffffffff1602179055506131a0806100616000396000f3fe6080604052600436106101095760003560e01c806384e814ef11610095578063bf5c292011610064578063bf5c2920146103d4578063cc3b6e4c146103ff578063d51b2d0614610440578063d63853c31461046b578063e547cb85146104a857610109565b806384e814ef146102f2578063918f96871461032f57806396260cdd1461036c5780639d735caf1461039757610109565b8063495f4972116100dc578063495f4972146101bb5780634a4db7fc146101f85780634c07d60e146102395780635daf08ca146102765780636f80886c146102b557610109565b8063059dfe131461010e5780631738e04b146101375780633dd9899f1461016257806346a817df1461019f575b600080fd5b34801561011a57600080fd5b506101356004803603810190610130919061244a565b6104e5565b005b34801561014357600080fd5b5061014c61065a565b6040516101599190612ae9565b60405180910390f35b34801561016e57600080fd5b5061018960048036038101906101849190612421565b6107ab565b6040516101969190612b8f565b60405180910390f35b6101b960048036038101906101b491906124b4565b6109c9565b005b3480156101c757600080fd5b506101e260048036038101906101dd9190612421565b610cbf565b6040516101ef9190612ac7565b60405180910390f35b34801561020457600080fd5b5061021f600480360381019061021a919061248b565b61109a565b604051610230959493929190612c64565b60405180910390f35b34801561024557600080fd5b50610260600480360381019061025b9190612421565b611195565b60405161026d9190612aa5565b60405180910390f35b34801561028257600080fd5b5061029d6004803603810190610298919061248b565b611570565b6040516102ac93929190612c26565b60405180910390f35b3480156102c157600080fd5b506102dc60048036038101906102d7919061248b565b611652565b6040516102e99190612b8f565b60405180910390f35b3480156102fe57600080fd5b506103196004803603810190610314919061248b565b6117b2565b6040516103269190612a5a565b60405180910390f35b34801561033b57600080fd5b506103566004803603810190610351919061244a565b6118cb565b6040516103639190612bb1565b60405180910390f35b34801561037857600080fd5b506103816119f4565b60405161038e9190612ac7565b60405180910390f35b3480156103a357600080fd5b506103be60048036038101906103b9919061248b565b611b6a565b6040516103cb9190612b6d565b60405180910390f35b3480156103e057600080fd5b506103e9611cef565b6040516103f69190612a5a565b60405180910390f35b34801561040b57600080fd5b506104266004803603810190610421919061248b565b611d15565b604051610437959493929190612bcc565b60405180910390f35b34801561044c57600080fd5b50610455611e10565b6040516104629190612aa5565b60405180910390f35b34801561047757600080fd5b50610492600480360381019061048d919061248b565b611f86565b60405161049f9190612bb1565b60405180910390f35b3480156104b457600080fd5b506104cf60048036038101906104ca919061248b565b61207f565b6040516104dc9190612b4b565b60405180910390f35b6104ef6004612203565b60006104fb6004612219565b905060016040518060a001604052808381526020013373ffffffffffffffffffffffffffffffffffffffff168152602001848152602001600081526020016001151581525090806001815401808255809150506001900390600052602060002090600502016000909190919091506000820151816000015560208201518160010160006101000a81548173ffffffffffffffffffffffffffffffffffffffff021916908373ffffffffffffffffffffffffffffffffffffffff16021790555060408201518160020190805190602001906105d6929190612227565b506060820151816003015560808201518160040160006101000a81548160ff02191690831515021790555050503373ffffffffffffffffffffffffffffffffffffffff167f715b5fb56f385eb51ddab38f20a936a4cfde1fe98d6312c87ba100e9cb47374b8284600060405161064e93929190612cbe565b60405180910390a25050565b60606000805480602002602001604051908101604052809291908181526020016000905b828210156107a25783829060005260206000209060030201604051806060016040529081600082015481526020016001820160009054906101000a900473ffffffffffffffffffffffffffffffffffffffff1673ffffffffffffffffffffffffffffffffffffffff1673ffffffffffffffffffffffffffffffffffffffff16815260200160028201805461071190612fa0565b80601f016020809104026020016040519081016040528092919081815260200182805461073d90612fa0565b801561078a5780601f1061075f5761010080835404028352916020019161078a565b820191906000526020600020905b81548152906001019060200180831161076d57829003601f168201915b5050505050815250508152602001906001019061067e565b50505050905090565b6107b36122ad565b60005b6000805490508110156109c2578273ffffffffffffffffffffffffffffffffffffffff1660008281548110610814577f4e487b7100000000000000000000000000000000000000000000000000000000600052603260045260246000fd5b906000526020600020906003020160010160009054906101000a900473ffffffffffffffffffffffffffffffffffffffff1673ffffffffffffffffffffffffffffffffffffffff1614156109af576000818154811061089c577f4e487b7100000000000000000000000000000000000000000000000000000000600052603260045260246000fd5b9060005260206000209060030201604051806060016040529081600082015481526020016001820160009054906101000a900473ffffffffffffffffffffffffffffffffffffffff1673ffffffffffffffffffffffffffffffffffffffff1673ffffffffffffffffffffffffffffffffffffffff16815260200160028201805461092590612fa0565b80601f016020809104026020016040519081016040528092919081815260200182805461095190612fa0565b801561099e5780601f106109735761010080835404028352916020019161099e565b820191906000526020600020905b81548152906001019060200180831161098157829003601f168201915b5050505050815250509150506109c4565b80806109ba90613003565b9150506107b6565b505b919050565b600180836109d79190612ebe565b81548110610a0e577f4e487b7100000000000000000000000000000000000000000000000000000000600052603260045260246000fd5b906000526020600020906005020160040160009054906101000a900460ff16610a6c576040517f08c379a0000000000000000000000000000000000000000000000000000000008152600401610a6390612b0b565b60405180910390fd5b600060018084610a7c9190612ebe565b81548110610ab3577f4e487b7100000000000000000000000000000000000000000000000000000000600052603260045260246000fd5b906000526020600020906005020190508060010160009054906101000a900473ffffffffffffffffffffffffffffffffffffffff1673ffffffffffffffffffffffffffffffffffffffff166108fc349081150290604051600060405180830381858888f19350505050158015610b2d573d6000803e3d6000fd5b506001816003016000828254610b439190612e68565b92505081905550610b546005612203565b6000610b606005612219565b905060026040518060a001604052808381526020013373ffffffffffffffffffffffffffffffffffffffff1681526020018681526020018581526020016001151581525090806001815401808255809150506001900390600052602060002090600502016000909190919091506000820151816000015560208201518160010160006101000a81548173ffffffffffffffffffffffffffffffffffffffff021916908373ffffffffffffffffffffffffffffffffffffffff160217905550604082015181600201556060820151816003019080519060200190610c44929190612227565b5060808201518160040160006101000a81548160ff02191690831515021790555050503373ffffffffffffffffffffffffffffffffffffffff167f3fbeeae842b82e900ed212eb824be25abbbc0115b88260c7c9a21d843c44a71b828686604051610cb193929190612cfc565b60405180910390a250505050565b60606000805b600280549050811015610d93578373ffffffffffffffffffffffffffffffffffffffff1660028281548110610d23577f4e487b7100000000000000000000000000000000000000000000000000000000600052603260045260246000fd5b906000526020600020906005020160010160009054906101000a900473ffffffffffffffffffffffffffffffffffffffff1673ffffffffffffffffffffffffffffffffffffffff161415610d80578180610d7c90613003565b9250505b8080610d8b90613003565b915050610cc5565b5060008167ffffffffffffffff811115610dd6577f4e487b7100000000000000000000000000000000000000000000000000000000600052604160045260246000fd5b604051908082528060200260200182016040528015610e0f57816020015b610dfc6122e4565b815260200190600190039081610df45790505b5090506000805b825181101561108e578573ffffffffffffffffffffffffffffffffffffffff1660028281548110610e70577f4e487b7100000000000000000000000000000000000000000000000000000000600052603260045260246000fd5b906000526020600020906005020160010160009054906101000a900473ffffffffffffffffffffffffffffffffffffffff1673ffffffffffffffffffffffffffffffffffffffff16141561107b5760028181548110610ef8577f4e487b7100000000000000000000000000000000000000000000000000000000600052603260045260246000fd5b90600052602060002090600502016040518060a0016040529081600082015481526020016001820160009054906101000a900473ffffffffffffffffffffffffffffffffffffffff1673ffffffffffffffffffffffffffffffffffffffff1673ffffffffffffffffffffffffffffffffffffffff16815260200160028201548152602001600382018054610f8b90612fa0565b80601f0160208091040260200160405190810160405280929190818152602001828054610fb790612fa0565b80156110045780601f10610fd957610100808354040283529160200191611004565b820191906000526020600020905b815481529060010190602001808311610fe757829003601f168201915b505050505081526020016004820160009054906101000a900460ff161515151581525050838381518110611061577f4e487b7100000000000000000000000000000000000000000000000000000000600052603260045260246000fd5b6020026020010181905250818061107790613003565b9250505b808061108690613003565b915050610e16565b50819350505050919050565b600281815481106110aa57600080fd5b90600052602060002090600502016000915090508060000154908060010160009054906101000a900473ffffffffffffffffffffffffffffffffffffffff16908060020154908060030180546110ff90612fa0565b80601f016020809104026020016040519081016040528092919081815260200182805461112b90612fa0565b80156111785780601f1061114d57610100808354040283529160200191611178565b820191906000526020600020905b81548152906001019060200180831161115b57829003601f168201915b5050505050908060040160009054906101000a900460ff16905085565b60606000805b600180549050811015611269578373ffffffffffffffffffffffffffffffffffffffff16600182815481106111f9577f4e487b7100000000000000000000000000000000000000000000000000000000600052603260045260246000fd5b906000526020600020906005020160010160009054906101000a900473ffffffffffffffffffffffffffffffffffffffff1673ffffffffffffffffffffffffffffffffffffffff16141561125657818061125290613003565b9250505b808061126190613003565b91505061119b565b5060008167ffffffffffffffff8111156112ac577f4e487b7100000000000000000000000000000000000000000000000000000000600052604160045260246000fd5b6040519080825280602002602001820160405280156112e557816020015b6112d261232b565b8152602001906001900390816112ca5790505b5090506000805b8251811015611564578573ffffffffffffffffffffffffffffffffffffffff1660018281548110611346577f4e487b7100000000000000000000000000000000000000000000000000000000600052603260045260246000fd5b906000526020600020906005020160010160009054906101000a900473ffffffffffffffffffffffffffffffffffffffff1673ffffffffffffffffffffffffffffffffffffffff16141561155157600181815481106113ce577f4e487b7100000000000000000000000000000000000000000000000000000000600052603260045260246000fd5b90600052602060002090600502016040518060a0016040529081600082015481526020016001820160009054906101000a900473ffffffffffffffffffffffffffffffffffffffff1673ffffffffffffffffffffffffffffffffffffffff1673ffffffffffffffffffffffffffffffffffffffff16815260200160028201805461145790612fa0565b80601f016020809104026020016040519081016040528092919081815260200182805461148390612fa0565b80156114d05780601f106114a5576101008083540402835291602001916114d0565b820191906000526020600020905b8154815290600101906020018083116114b357829003601f168201915b50505050508152602001600382015481526020016004820160009054906101000a900460ff161515151581525050838381518110611537577f4e487b7100000000000000000000000000000000000000000000000000000000600052603260045260246000fd5b6020026020010181905250818061154d90613003565b9250505b808061155c90613003565b9150506112ec565b50819350505050919050565b6000818154811061158057600080fd5b90600052602060002090600302016000915090508060000154908060010160009054906101000a900473ffffffffffffffffffffffffffffffffffffffff16908060020180546115cf90612fa0565b80601f01602080910402602001604051908101604052809291908181526020018280546115fb90612fa0565b80156116485780601f1061161d57610100808354040283529160200191611648565b820191906000526020600020905b81548152906001019060200180831161162b57829003601f168201915b5050505050905083565b61165a6122ad565b60006001836116699190612ebe565b815481106116a0577f4e487b7100000000000000000000000000000000000000000000000000000000600052603260045260246000fd5b9060005260206000209060030201604051806060016040529081600082015481526020016001820160009054906101000a900473ffffffffffffffffffffffffffffffffffffffff1673ffffffffffffffffffffffffffffffffffffffff1673ffffffffffffffffffffffffffffffffffffffff16815260200160028201805461172990612fa0565b80601f016020809104026020016040519081016040528092919081815260200182805461175590612fa0565b80156117a25780601f10611777576101008083540402835291602001916117a2565b820191906000526020600020905b81548152906001019060200180831161178557829003601f168201915b5050505050815250509050919050565b600060026001836117c39190612ebe565b815481106117fa577f4e487b7100000000000000000000000000000000000000000000000000000000600052603260045260246000fd5b906000526020600020906005020160040160009054906101000a900460ff16611858576040517f08c379a000000000000000000000000000000000000000000000000000000000815260040161184f90612b2b565b60405180910390fd5b60028281548110611892577f4e487b7100000000000000000000000000000000000000000000000000000000600052603260045260246000fd5b906000526020600020906005020160010160009054906101000a900473ffffffffffffffffffffffffffffffffffffffff169050919050565b60006118d76003612203565b60006118e36003612219565b9050600060405180606001604052808381526020013373ffffffffffffffffffffffffffffffffffffffff1681526020018581525090806001815401808255809150506001900390600052602060002090600302016000909190919091506000820151816000015560208201518160010160006101000a81548173ffffffffffffffffffffffffffffffffffffffff021916908373ffffffffffffffffffffffffffffffffffffffff16021790555060408201518160020190805190602001906119ae929190612227565b505050807f514f49a04456c7bde03bbe8a556f3c4f484146705d8155e61c23ad2aead863fc33856040516119e3929190612a75565b60405180910390a280915050919050565b60606002805480602002602001604051908101604052809291908181526020016000905b82821015611b6157838290600052602060002090600502016040518060a0016040529081600082015481526020016001820160009054906101000a900473ffffffffffffffffffffffffffffffffffffffff1673ffffffffffffffffffffffffffffffffffffffff1673ffffffffffffffffffffffffffffffffffffffff16815260200160028201548152602001600382018054611ab590612fa0565b80601f0160208091040260200160405190810160405280929190818152602001828054611ae190612fa0565b8015611b2e5780601f10611b0357610100808354040283529160200191611b2e565b820191906000526020600020905b815481529060010190602001808311611b1157829003601f168201915b505050505081526020016004820160009054906101000a900460ff16151515158152505081526020019060010190611a18565b50505050905090565b611b726122e4565b6002600183611b819190612ebe565b81548110611bb8577f4e487b7100000000000000000000000000000000000000000000000000000000600052603260045260246000fd5b90600052602060002090600502016040518060a0016040529081600082015481526020016001820160009054906101000a900473ffffffffffffffffffffffffffffffffffffffff1673ffffffffffffffffffffffffffffffffffffffff1673ffffffffffffffffffffffffffffffffffffffff16815260200160028201548152602001600382018054611c4b90612fa0565b80601f0160208091040260200160405190810160405280929190818152602001828054611c7790612fa0565b8015611cc45780601f10611c9957610100808354040283529160200191611cc4565b820191906000526020600020905b815481529060010190602001808311611ca757829003601f168201915b505050505081526020016004820160009054906101000a900460ff1615151515815250509050919050565b600660009054906101000a900473ffffffffffffffffffffffffffffffffffffffff1681565b60018181548110611d2557600080fd5b90600052602060002090600502016000915090508060000154908060010160009054906101000a900473ffffffffffffffffffffffffffffffffffffffff1690806002018054611d7490612fa0565b80601f0160208091040260200160405190810160405280929190818152602001828054611da090612fa0565b8015611ded5780601f10611dc257610100808354040283529160200191611ded565b820191906000526020600020905b815481529060010190602001808311611dd057829003601f168201915b5050505050908060030154908060040160009054906101000a900460ff16905085565b60606001805480602002602001604051908101604052809291908181526020016000905b82821015611f7d57838290600052602060002090600502016040518060a0016040529081600082015481526020016001820160009054906101000a900473ffffffffffffffffffffffffffffffffffffffff1673ffffffffffffffffffffffffffffffffffffffff1673ffffffffffffffffffffffffffffffffffffffff168152602001600282018054611ec790612fa0565b80601f0160208091040260200160405190810160405280929190818152602001828054611ef390612fa0565b8015611f405780601f10611f1557610100808354040283529160200191611f40565b820191906000526020600020905b815481529060010190602001808311611f2357829003601f168201915b50505050508152602001600382015481526020016004820160009054906101000a900460ff16151515158152505081526020019060010190611e34565b50505050905090565b60006002600183611f979190612ebe565b81548110611fce577f4e487b7100000000000000000000000000000000000000000000000000000000600052603260045260246000fd5b906000526020600020906005020160040160009054906101000a900460ff1661202c576040517f08c379a000000000000000000000000000000000000000000000000000000000815260040161202390612b2b565b60405180910390fd5b60028281548110612066577f4e487b7100000000000000000000000000000000000000000000000000000000600052603260045260246000fd5b9060005260206000209060050201600201549050919050565b61208761232b565b600180836120959190612ebe565b815481106120cc577f4e487b7100000000000000000000000000000000000000000000000000000000600052603260045260246000fd5b90600052602060002090600502016040518060a0016040529081600082015481526020016001820160009054906101000a900473ffffffffffffffffffffffffffffffffffffffff1673ffffffffffffffffffffffffffffffffffffffff1673ffffffffffffffffffffffffffffffffffffffff16815260200160028201805461215590612fa0565b80601f016020809104026020016040519081016040528092919081815260200182805461218190612fa0565b80156121ce5780601f106121a3576101008083540402835291602001916121ce565b820191906000526020600020905b8154815290600101906020018083116121b157829003601f168201915b50505050508152602001600382015481526020016004820160009054906101000a900460ff1615151515815250509050919050565b6001816000016000828254019250508190555050565b600081600001549050919050565b82805461223390612fa0565b90600052602060002090601f016020900481019282612255576000855561229c565b82601f1061226e57805160ff191683800117855561229c565b8280016001018555821561229c579182015b8281111561229b578251825591602001919060010190612280565b5b5090506122a99190612372565b5090565b604051806060016040528060008152602001600073ffffffffffffffffffffffffffffffffffffffff168152602001606081525090565b6040518060a0016040528060008152602001600073ffffffffffffffffffffffffffffffffffffffff16815260200160008152602001606081526020016000151581525090565b6040518060a0016040528060008152602001600073ffffffffffffffffffffffffffffffffffffffff16815260200160608152602001600081526020016000151581525090565b5b8082111561238b576000816000905550600101612373565b5090565b60006123a261239d84612d5f565b612d3a565b9050828152602081018484840111156123ba57600080fd5b6123c5848285612f5e565b509392505050565b6000813590506123dc8161313c565b92915050565b600082601f8301126123f357600080fd5b813561240384826020860161238f565b91505092915050565b60008135905061241b81613153565b92915050565b60006020828403121561243357600080fd5b6000612441848285016123cd565b91505092915050565b60006020828403121561245c57600080fd5b600082013567ffffffffffffffff81111561247657600080fd5b612482848285016123e2565b91505092915050565b60006020828403121561249d57600080fd5b60006124ab8482850161240c565b91505092915050565b600080604083850312156124c757600080fd5b60006124d58582860161240c565b925050602083013567ffffffffffffffff8111156124f257600080fd5b6124fe858286016123e2565b9150509250929050565b600061251483836127c4565b905092915050565b600061252883836128b0565b905092915050565b600061253c838361299c565b905092915050565b61254d81612f04565b82525050565b61255c81612f04565b82525050565b61256b81612ef2565b82525050565b61257a81612ef2565b82525050565b600061258b82612dc0565b6125958185612e13565b9350836020820285016125a785612d90565b8060005b858110156125e357848403895281516125c48582612508565b94506125cf83612dec565b925060208a019950506001810190506125ab565b50829750879550505050505092915050565b600061260082612dcb565b61260a8185612e24565b93508360208202850161261c85612da0565b8060005b858110156126585784840389528151612639858261251c565b945061264483612df9565b925060208a01995050600181019050612620565b50829750879550505050505092915050565b600061267582612dd6565b61267f8185612e35565b93508360208202850161269185612db0565b8060005b858110156126cd57848403895281516126ae8582612530565b94506126b983612e06565b925060208a01995050600181019050612695565b50829750879550505050505092915050565b6126e881612f16565b82525050565b6126f781612f16565b82525050565b61270681612f4c565b82525050565b600061271782612de1565b6127218185612e46565b9350612731818560208601612f6d565b61273a816130d9565b840191505092915050565b600061275082612de1565b61275a8185612e57565b935061276a818560208601612f6d565b612773816130d9565b840191505092915050565b600061278b601983612e57565b9150612796826130ea565b602082019050919050565b60006127ae601a83612e57565b91506127b982613113565b602082019050919050565b600060a0830160008301516127dc6000860182612a3c565b5060208301516127ef6020860182612544565b5060408301518482036040860152612807828261270c565b915050606083015161281c6060860182612a3c565b50608083015161282f60808601826126df565b508091505092915050565b600060a0830160008301516128526000860182612a3c565b5060208301516128656020860182612544565b506040830151848203604086015261287d828261270c565b91505060608301516128926060860182612a3c565b5060808301516128a560808601826126df565b508091505092915050565b600060a0830160008301516128c86000860182612a3c565b5060208301516128db6020860182612562565b5060408301516128ee6040860182612a3c565b5060608301518482036060860152612906828261270c565b915050608083015161291b60808601826126df565b508091505092915050565b600060a08301600083015161293e6000860182612a3c565b5060208301516129516020860182612562565b5060408301516129646040860182612a3c565b506060830151848203606086015261297c828261270c565b915050608083015161299160808601826126df565b508091505092915050565b60006060830160008301516129b46000860182612a3c565b5060208301516129c76020860182612562565b50604083015184820360408601526129df828261270c565b9150508091505092915050565b6000606083016000830151612a046000860182612a3c565b506020830151612a176020860182612562565b5060408301518482036040860152612a2f828261270c565b9150508091505092915050565b612a4581612f42565b82525050565b612a5481612f42565b82525050565b6000602082019050612a6f6000830184612571565b92915050565b6000604082019050612a8a6000830185612571565b8181036020830152612a9c8184612745565b90509392505050565b60006020820190508181036000830152612abf8184612580565b905092915050565b60006020820190508181036000830152612ae181846125f5565b905092915050565b60006020820190508181036000830152612b03818461266a565b905092915050565b60006020820190508181036000830152612b248161277e565b9050919050565b60006020820190508181036000830152612b44816127a1565b9050919050565b60006020820190508181036000830152612b65818461283a565b905092915050565b60006020820190508181036000830152612b878184612926565b905092915050565b60006020820190508181036000830152612ba981846129ec565b905092915050565b6000602082019050612bc66000830184612a4b565b92915050565b600060a082019050612be16000830188612a4b565b612bee6020830187612553565b8181036040830152612c008186612745565b9050612c0f6060830185612a4b565b612c1c60808301846126ee565b9695505050505050565b6000606082019050612c3b6000830186612a4b565b612c486020830185612571565b8181036040830152612c5a8184612745565b9050949350505050565b600060a082019050612c796000830188612a4b565b612c866020830187612571565b612c936040830186612a4b565b8181036060830152612ca58185612745565b9050612cb460808301846126ee565b9695505050505050565b6000606082019050612cd36000830186612a4b565b8181036020830152612ce58185612745565b9050612cf460408301846126fd565b949350505050565b6000606082019050612d116000830186612a4b565b612d1e6020830185612a4b565b8181036040830152612d308184612745565b9050949350505050565b6000612d44612d55565b9050612d508282612fd2565b919050565b6000604051905090565b600067ffffffffffffffff821115612d7a57612d796130aa565b5b612d83826130d9565b9050602081019050919050565b6000819050602082019050919050565b6000819050602082019050919050565b6000819050602082019050919050565b600081519050919050565b600081519050919050565b600081519050919050565b600081519050919050565b6000602082019050919050565b6000602082019050919050565b6000602082019050919050565b600082825260208201905092915050565b600082825260208201905092915050565b600082825260208201905092915050565b600082825260208201905092915050565b600082825260208201905092915050565b6000612e7382612f42565b9150612e7e83612f42565b9250827fffffffffffffffffffffffffffffffffffffffffffffffffffffffffffffffff03821115612eb357612eb261304c565b5b828201905092915050565b6000612ec982612f42565b9150612ed483612f42565b925082821015612ee757612ee661304c565b5b828203905092915050565b6000612efd82612f22565b9050919050565b6000612f0f82612f22565b9050919050565b60008115159050919050565b600073ffffffffffffffffffffffffffffffffffffffff82169050919050565b6000819050919050565b6000612f5782612f42565b9050919050565b82818337600083830152505050565b60005b83811015612f8b578082015181840152602081019050612f70565b83811115612f9a576000848401525b50505050565b60006002820490506001821680612fb857607f821691505b60208210811415612fcc57612fcb61307b565b5b50919050565b612fdb826130d9565b810181811067ffffffffffffffff82111715612ffa57612ff96130aa565b5b80604052505050565b600061300e82612f42565b91507fffffffffffffffffffffffffffffffffffffffffffffffffffffffffffffffff8214156130415761304061304c565b5b600182019050919050565b7f4e487b7100000000000000000000000000000000000000000000000000000000600052601160045260246000fd5b7f4e487b7100000000000000000000000000000000000000000000000000000000600052602260045260246000fd5b7f4e487b7100000000000000000000000000000000000000000000000000000000600052604160045260246000fd5b6000601f19601f8301169050919050565b7f436f6c6c656374696f6e20646f6573206e6f7420657869737400000000000000600082015250565b7f436572746966696361746520646f6573206e6f74206578697374000000000000600082015250565b61314581612ef2565b811461315057600080fd5b50565b61315c81612f42565b811461316757600080fd5b5056fea2646970667358221220e0020205e484a5b12392f6cc077d7897ad0fd3e2776d82e3bdbbd2560086b7e564736f6c63430008040033",
  "linkReferences": {},
  "deployedLinkReferences": {}
}