{
  "_format": "hh-sol-artifact-1",
  "contractName": "ArtAttribution",
  "sourceName": "contracts/ArtAttribution.sol",
  "abi": [
    {
      "inputs": [],
      "stateMutability": "nonpayable",
      "type": "constructor"
    },
    {
      "anonymous": false,
      "inputs": [
        {
          "indexed": true,
          "internalType": "address",
          "name": "owner",
          "type": "address"
        },
        {
          "indexed": true,
          "internalType": "address",
          "name": "approved",
          "type": "address"
        },
        {
          "indexed": true,
          "internalType": "uint256",
          "name": "tokenId",
          "type": "uint256"
        }
      ],
      "name": "Approval",
      "type": "event"
    },
    {
      "anonymous": false,
      "inputs": [
        {
          "indexed": true,
          "internalType": "address",
          "name": "owner",
          "type": "address"
        },
        {
          "indexed": true,
          "internalType": "address",
          "name": "operator",
          "type": "address"
        },
        {
          "indexed": false,
          "internalType": "bool",
          "name": "approved",
          "type": "bool"
        }
      ],
      "name": "ApprovalForAll",
      "type": "event"
    },
    {
      "anonymous": false,
      "inputs": [
        {
          "indexed": false,
          "internalType": "uint256",
          "name": "certificateId",
          "type": "uint256"
        },
        {
          "indexed": true,
          "internalType": "address",
          "name": "owner",
          "type": "address"
        },
        {
          "indexed": false,
          "internalType": "uint256",
          "name": "collectionId",
          "type": "uint256"
        },
        {
          "indexed": false,
          "internalType": "string",
          "name": "certificateUri",
          "type": "string"
        }
      ],
      "name": "ArtworkAttributed",
      "type": "event"
    },
    {
      "anonymous": false,
      "inputs": [
        {
          "indexed": false,
          "internalType": "uint256",
          "name": "collectionId",
          "type": "uint256"
        },
        {
          "indexed": true,
          "internalType": "address",
          "name": "creator",
          "type": "address"
        },
        {
          "indexed": false,
          "internalType": "string",
          "name": "collectionUri",
          "type": "string"
        },
        {
          "indexed": false,
          "internalType": "uint256",
          "name": "totalAttributions",
          "type": "uint256"
        }
      ],
      "name": "CollectionCreated",
      "type": "event"
    },
    {
      "anonymous": false,
      "inputs": [
        {
          "indexed": true,
          "internalType": "uint256",
          "name": "memberId",
          "type": "uint256"
        },
        {
          "indexed": false,
          "internalType": "address",
          "name": "memberAddress",
          "type": "address"
        },
        {
          "indexed": false,
          "internalType": "string",
          "name": "dataUri",
          "type": "string"
        }
      ],
      "name": "NewMember",
      "type": "event"
    },
    {
      "anonymous": false,
      "inputs": [
        {
          "indexed": true,
          "internalType": "address",
          "name": "from",
          "type": "address"
        },
        {
          "indexed": true,
          "internalType": "address",
          "name": "to",
          "type": "address"
        },
        {
          "indexed": true,
          "internalType": "uint256",
          "name": "tokenId",
          "type": "uint256"
        }
      ],
      "name": "Transfer",
      "type": "event"
    },
    {
      "inputs": [
        {
          "internalType": "string",
          "name": "dataUri",
          "type": "string"
        }
      ],
      "name": "addMember",
      "outputs": [
        {
          "internalType": "uint256",
          "name": "",
          "type": "uint256"
        }
      ],
      "stateMutability": "nonpayable",
      "type": "function"
    },
    {
      "inputs": [
        {
          "internalType": "address",
          "name": "to",
          "type": "address"
        },
        {
          "internalType": "uint256",
          "name": "tokenId",
          "type": "uint256"
        }
      ],
      "name": "approve",
      "outputs": [],
      "stateMutability": "nonpayable",
      "type": "function"
    },
    {
      "inputs": [
        {
          "internalType": "uint256",
          "name": "",
          "type": "uint256"
        }
      ],
      "name": "artCollections",
      "outputs": [
        {
          "internalType": "uint256",
          "name": "collectionId",
          "type": "uint256"
        },
        {
          "internalType": "address payable",
          "name": "creator",
          "type": "address"
        },
        {
          "internalType": "string",
          "name": "collectionUri",
          "type": "string"
        },
        {
          "internalType": "uint256",
          "name": "totalAttributions",
          "type": "uint256"
        },
        {
          "internalType": "bool",
          "name": "exists",
          "type": "bool"
        }
      ],
      "stateMutability": "view",
      "type": "function"
    },
    {
      "inputs": [
        {
          "internalType": "uint256",
          "name": "_collectionId",
          "type": "uint256"
        },
        {
          "internalType": "string",
          "name": "certificateUri",
          "type": "string"
        }
      ],
      "name": "attributeCollection",
      "outputs": [],
      "stateMutability": "payable",
      "type": "function"
    },
    {
      "inputs": [
        {
          "internalType": "uint256",
          "name": "",
          "type": "uint256"
        }
      ],
      "name": "attributionCertificates",
      "outputs": [
        {
          "internalType": "uint256",
          "name": "certificateId",
          "type": "uint256"
        },
        {
          "internalType": "address",
          "name": "owner",
          "type": "address"
        },
        {
          "internalType": "uint256",
          "name": "collectionId",
          "type": "uint256"
        },
        {
          "internalType": "string",
          "name": "certificateUri",
          "type": "string"
        },
        {
          "internalType": "bool",
          "name": "exists",
          "type": "bool"
        }
      ],
      "stateMutability": "view",
      "type": "function"
    },
    {
      "inputs": [
        {
          "internalType": "address",
          "name": "owner",
          "type": "address"
        }
      ],
      "name": "balanceOf",
      "outputs": [
        {
          "internalType": "uint256",
          "name": "",
          "type": "uint256"
        }
      ],
      "stateMutability": "view",
      "type": "function"
    },
    {
      "inputs": [
        {
          "internalType": "string",
          "name": "collectionUri",
          "type": "string"
        }
      ],
      "name": "createCollection",
      "outputs": [],
      "stateMutability": "nonpayable",
      "type": "function"
    },
    {
      "inputs": [],
      "name": "fetchAllCertificates",
      "outputs": [
        {
          "components": [
            {
              "internalType": "uint256",
              "name": "certificateId",
              "type": "uint256"
            },
            {
              "internalType": "address",
              "name": "owner",
              "type": "address"
            },
            {
              "internalType": "uint256",
              "name": "collectionId",
              "type": "uint256"
            },
            {
              "internalType": "string",
              "name": "certificateUri",
              "type": "string"
            },
            {
              "internalType": "bool",
              "name": "exists",
              "type": "bool"
            }
          ],
          "internalType": "struct ArtAttribution.AttributionCertificate[]",
          "name": "",
          "type": "tuple[]"
        }
      ],
      "stateMutability": "view",
      "type": "function"
    },
    {
      "inputs": [],
      "name": "fetchAllCollections",
      "outputs": [
        {
          "components": [
            {
              "internalType": "uint256",
              "name": "collectionId",
              "type": "uint256"
            },
            {
              "internalType": "address payable",
              "name": "creator",
              "type": "address"
            },
            {
              "internalType": "string",
              "name": "collectionUri",
              "type": "string"
            },
            {
              "internalType": "uint256",
              "name": "totalAttributions",
              "type": "uint256"
            },
            {
              "internalType": "bool",
              "name": "exists",
              "type": "bool"
            }
          ],
          "internalType": "struct ArtAttribution.ArtCollection[]",
          "name": "",
          "type": "tuple[]"
        }
      ],
      "stateMutability": "view",
      "type": "function"
    },
    {
      "inputs": [],
      "name": "fetchAllMembers",
      "outputs": [
        {
          "components": [
            {
              "internalType": "uint256",
              "name": "memberId",
              "type": "uint256"
            },
            {
              "internalType": "address",
              "name": "_address",
              "type": "address"
            },
            {
              "internalType": "string",
              "name": "dataUri",
              "type": "string"
            }
          ],
          "internalType": "struct ArtAttribution.Member[]",
          "name": "",
          "type": "tuple[]"
        }
      ],
      "stateMutability": "view",
      "type": "function"
    },
    {
      "inputs": [
        {
          "internalType": "uint256",
          "name": "tokenId",
          "type": "uint256"
        }
      ],
      "name": "getApproved",
      "outputs": [
        {
          "internalType": "address",
          "name": "",
          "type": "address"
        }
      ],
      "stateMutability": "view",
      "type": "function"
    },
    {
      "inputs": [
        {
          "internalType": "uint256",
          "name": "id",
          "type": "uint256"
        }
      ],
      "name": "getCertificateById",
      "outputs": [
        {
          "components": [
            {
              "internalType": "uint256",
              "name": "certificateId",
              "type": "uint256"
            },
            {
              "internalType": "address",
              "name": "owner",
              "type": "address"
            },
            {
              "internalType": "uint256",
              "name": "collectionId",
              "type": "uint256"
            },
            {
              "internalType": "string",
              "name": "certificateUri",
              "type": "string"
            },
            {
              "internalType": "bool",
              "name": "exists",
              "type": "bool"
            }
          ],
          "internalType": "struct ArtAttribution.AttributionCertificate",
          "name": "",
          "type": "tuple"
        }
      ],
      "stateMutability": "view",
      "type": "function"
    },
    {
      "inputs": [
        {
          "internalType": "uint256",
          "name": "_certificateId",
          "type": "uint256"
        }
      ],
      "name": "getCertificateCollection",
      "outputs": [
        {
          "internalType": "uint256",
          "name": "",
          "type": "uint256"
        }
      ],
      "stateMutability": "view",
      "type": "function"
    },
    {
      "inputs": [
        {
          "internalType": "uint256",
          "name": "_certificateId",
          "type": "uint256"
        }
      ],
      "name": "getCertificateOwner",
      "outputs": [
        {
          "internalType": "address",
          "name": "",
          "type": "address"
        }
      ],
      "stateMutability": "view",
      "type": "function"
    },
    {
      "inputs": [
        {
          "internalType": "uint256",
          "name": "id",
          "type": "uint256"
        }
      ],
      "name": "getCollectionById",
      "outputs": [
        {
          "components": [
            {
              "internalType": "uint256",
              "name": "collectionId",
              "type": "uint256"
            },
            {
              "internalType": "address payable",
              "name": "creator",
              "type": "address"
            },
            {
              "internalType": "string",
              "name": "collectionUri",
              "type": "string"
            },
            {
              "internalType": "uint256",
              "name": "totalAttributions",
              "type": "uint256"
            },
            {
              "internalType": "bool",
              "name": "exists",
              "type": "bool"
            }
          ],
          "internalType": "struct ArtAttribution.ArtCollection",
          "name": "",
          "type": "tuple"
        }
      ],
      "stateMutability": "view",
      "type": "function"
    },
    {
      "inputs": [
        {
          "internalType": "address",
          "name": "_address",
          "type": "address"
        }
      ],
      "name": "getMemberByAddress",
      "outputs": [
        {
          "components": [
            {
              "internalType": "uint256",
              "name": "memberId",
              "type": "uint256"
            },
            {
              "internalType": "address",
              "name": "_address",
              "type": "address"
            },
            {
              "internalType": "string",
              "name": "dataUri",
              "type": "string"
            }
          ],
          "internalType": "struct ArtAttribution.Member",
          "name": "",
          "type": "tuple"
        }
      ],
      "stateMutability": "view",
      "type": "function"
    },
    {
      "inputs": [
        {
          "internalType": "uint256",
          "name": "id",
          "type": "uint256"
        }
      ],
      "name": "getMemberById",
      "outputs": [
        {
          "components": [
            {
              "internalType": "uint256",
              "name": "memberId",
              "type": "uint256"
            },
            {
              "internalType": "address",
              "name": "_address",
              "type": "address"
            },
            {
              "internalType": "string",
              "name": "dataUri",
              "type": "string"
            }
          ],
          "internalType": "struct ArtAttribution.Member",
          "name": "",
          "type": "tuple"
        }
      ],
      "stateMutability": "view",
      "type": "function"
    },
    {
      "inputs": [
        {
          "internalType": "address",
          "name": "owner",
          "type": "address"
        }
      ],
      "name": "getOwnedCertificates",
      "outputs": [
        {
          "components": [
            {
              "internalType": "uint256",
              "name": "certificateId",
              "type": "uint256"
            },
            {
              "internalType": "address",
              "name": "owner",
              "type": "address"
            },
            {
              "internalType": "uint256",
              "name": "collectionId",
              "type": "uint256"
            },
            {
              "internalType": "string",
              "name": "certificateUri",
              "type": "string"
            },
            {
              "internalType": "bool",
              "name": "exists",
              "type": "bool"
            }
          ],
          "internalType": "struct ArtAttribution.AttributionCertificate[]",
          "name": "",
          "type": "tuple[]"
        }
      ],
      "stateMutability": "view",
      "type": "function"
    },
    {
      "inputs": [
        {
          "internalType": "address",
          "name": "creator",
          "type": "address"
        }
      ],
      "name": "getOwnedCollections",
      "outputs": [
        {
          "components": [
            {
              "internalType": "uint256",
              "name": "collectionId",
              "type": "uint256"
            },
            {
              "internalType": "address payable",
              "name": "creator",
              "type": "address"
            },
            {
              "internalType": "string",
              "name": "collectionUri",
              "type": "string"
            },
            {
              "internalType": "uint256",
              "name": "totalAttributions",
              "type": "uint256"
            },
            {
              "internalType": "bool",
              "name": "exists",
              "type": "bool"
            }
          ],
          "internalType": "struct ArtAttribution.ArtCollection[]",
          "name": "",
          "type": "tuple[]"
        }
      ],
      "stateMutability": "view",
      "type": "function"
    },
    {
      "inputs": [
        {
          "internalType": "address",
          "name": "owner",
          "type": "address"
        },
        {
          "internalType": "address",
          "name": "operator",
          "type": "address"
        }
      ],
      "name": "isApprovedForAll",
      "outputs": [
        {
          "internalType": "bool",
          "name": "",
          "type": "bool"
        }
      ],
      "stateMutability": "view",
      "type": "function"
    },
    {
      "inputs": [
        {
          "internalType": "uint256",
          "name": "",
          "type": "uint256"
        }
      ],
      "name": "members",
      "outputs": [
        {
          "internalType": "uint256",
          "name": "memberId",
          "type": "uint256"
        },
        {
          "internalType": "address",
          "name": "_address",
          "type": "address"
        },
        {
          "internalType": "string",
          "name": "dataUri",
          "type": "string"
        }
      ],
      "stateMutability": "view",
      "type": "function"
    },
    {
      "inputs": [],
      "name": "name",
      "outputs": [
        {
          "internalType": "string",
          "name": "",
          "type": "string"
        }
      ],
      "stateMutability": "view",
      "type": "function"
    },
    {
      "inputs": [
        {
          "internalType": "uint256",
          "name": "tokenId",
          "type": "uint256"
        }
      ],
      "name": "ownerOf",
      "outputs": [
        {
          "internalType": "address",
          "name": "",
          "type": "address"
        }
      ],
      "stateMutability": "view",
      "type": "function"
    },
    {
      "inputs": [
        {
          "internalType": "address",
          "name": "from",
          "type": "address"
        },
        {
          "internalType": "address",
          "name": "to",
          "type": "address"
        },
        {
          "internalType": "uint256",
          "name": "tokenId",
          "type": "uint256"
        }
      ],
      "name": "safeTransferFrom",
      "outputs": [],
      "stateMutability": "nonpayable",
      "type": "function"
    },
    {
      "inputs": [
        {
          "internalType": "address",
          "name": "from",
          "type": "address"
        },
        {
          "internalType": "address",
          "name": "to",
          "type": "address"
        },
        {
          "internalType": "uint256",
          "name": "tokenId",
          "type": "uint256"
        },
        {
          "internalType": "bytes",
          "name": "data",
          "type": "bytes"
        }
      ],
      "name": "safeTransferFrom",
      "outputs": [],
      "stateMutability": "nonpayable",
      "type": "function"
    },
    {
      "inputs": [
        {
          "internalType": "address",
          "name": "operator",
          "type": "address"
        },
        {
          "internalType": "bool",
          "name": "approved",
          "type": "bool"
        }
      ],
      "name": "setApprovalForAll",
      "outputs": [],
      "stateMutability": "nonpayable",
      "type": "function"
    },
    {
      "inputs": [
        {
          "internalType": "bytes4",
          "name": "interfaceId",
          "type": "bytes4"
        }
      ],
      "name": "supportsInterface",
      "outputs": [
        {
          "internalType": "bool",
          "name": "",
          "type": "bool"
        }
      ],
      "stateMutability": "view",
      "type": "function"
    },
    {
      "inputs": [],
      "name": "symbol",
      "outputs": [
        {
          "internalType": "string",
          "name": "",
          "type": "string"
        }
      ],
      "stateMutability": "view",
      "type": "function"
    },
    {
      "inputs": [
        {
          "internalType": "uint256",
          "name": "tokenId",
          "type": "uint256"
        }
      ],
      "name": "tokenURI",
      "outputs": [
        {
          "internalType": "string",
          "name": "",
          "type": "string"
        }
      ],
      "stateMutability": "view",
      "type": "function"
    },
    {
      "inputs": [
        {
          "internalType": "address",
          "name": "from",
          "type": "address"
        },
        {
          "internalType": "address",
          "name": "to",
          "type": "address"
        },
        {
          "internalType": "uint256",
          "name": "tokenId",
          "type": "uint256"
        }
      ],
      "name": "transferFrom",
      "outputs": [],
      "stateMutability": "nonpayable",
      "type": "function"
    }
  ],
  "bytecode": "0x60806040523480156200001157600080fd5b506040518060400160405280601581526020017f417274204174747269627574696f6e20546f6b656e00000000000000000000008152506040518060400160405280600481526020017f4154545200000000000000000000000000000000000000000000000000000000815250816000908051906020019062000096929190620000f9565b508060019080519060200190620000af929190620000f9565b50505033600d60006101000a81548173ffffffffffffffffffffffffffffffffffffffff021916908373ffffffffffffffffffffffffffffffffffffffff1602179055506200020e565b8280546200010790620001a9565b90600052602060002090601f0160209004810192826200012b576000855562000177565b82601f106200014657805160ff191683800117855562000177565b8280016001018555821562000177579182015b828111156200017657825182559160200191906001019062000159565b5b5090506200018691906200018a565b5090565b5b80821115620001a55760008160009055506001016200018b565b5090565b60006002820490506001821680620001c257607f821691505b60208210811415620001d957620001d8620001df565b5b50919050565b7f4e487b7100000000000000000000000000000000000000000000000000000000600052602260045260246000fd5b6155d7806200021e6000396000f3fe6080604052600436106101cd5760003560e01c806370a08231116100f7578063b88d4fde11610095578063d51b2d0611610064578063d51b2d061461072d578063d63853c314610758578063e547cb8514610795578063e985e9c5146107d2576101cd565b8063b88d4fde1461066a578063c87b56dd14610693578063cc3b6e4c146106d0578063cc63313014610711576101cd565b806395d89b41116100d157806395d89b41146105ae57806396260cdd146105d95780639d735caf14610604578063a22cb46514610641576101cd565b806370a08231146104f757806384e814ef14610534578063918f968714610571576101cd565b80633dd9899f1161016f5780634c07d60e1161013e5780634c07d60e146104015780635daf08ca1461043e5780636352211e1461047d5780636f80886c146104ba576101cd565b80633dd9899f1461031d57806342842e0e1461035a578063495f4972146103835780634a4db7fc146103c0576101cd565b8063081812fc116101ab578063081812fc14610263578063095ea7b3146102a05780631738e04b146102c957806323b872dd146102f4576101cd565b806301ffc9a7146101d2578063059dfe131461020f57806306fdde0314610238575b600080fd5b3480156101de57600080fd5b506101f960048036038101906101f49190614026565b61080f565b60405161020691906149b7565b60405180910390f35b34801561021b57600080fd5b5061023660048036038101906102319190614078565b6108f1565b005b34801561024457600080fd5b5061024d610a66565b60405161025a91906149d2565b60405180910390f35b34801561026f57600080fd5b5061028a600480360381019061028591906140b9565b610af8565b60405161029791906148ba565b60405180910390f35b3480156102ac57600080fd5b506102c760048036038101906102c29190613fea565b610b3e565b005b3480156102d557600080fd5b506102de610c56565b6040516102eb9190614995565b60405180910390f35b34801561030057600080fd5b5061031b60048036038101906103169190613ee4565b610da7565b005b34801561032957600080fd5b50610344600480360381019061033f9190613e7f565b610e07565b6040516103519190614bf8565b60405180910390f35b34801561036657600080fd5b50610381600480360381019061037c9190613ee4565b611025565b005b34801561038f57600080fd5b506103aa60048036038101906103a59190613e7f565b611045565b6040516103b79190614973565b60405180910390f35b3480156103cc57600080fd5b506103e760048036038101906103e291906140b9565b611420565b6040516103f8959493929190614ccd565b60405180910390f35b34801561040d57600080fd5b5061042860048036038101906104239190613e7f565b61151b565b6040516104359190614951565b60405180910390f35b34801561044a57600080fd5b50610465600480360381019061046091906140b9565b6118f6565b60405161047493929190614c8f565b60405180910390f35b34801561048957600080fd5b506104a4600480360381019061049f91906140b9565b6119d8565b6040516104b191906148ba565b60405180910390f35b3480156104c657600080fd5b506104e160048036038101906104dc91906140b9565b611a5f565b6040516104ee9190614bf8565b60405180910390f35b34801561050357600080fd5b5061051e60048036038101906105199190613e7f565b611bbf565b60405161052b9190614c1a565b60405180910390f35b34801561054057600080fd5b5061055b600480360381019061055691906140b9565b611c77565b60405161056891906148ba565b60405180910390f35b34801561057d57600080fd5b5061059860048036038101906105939190614078565b611d84565b6040516105a59190614c1a565b60405180910390f35b3480156105ba57600080fd5b506105c3611ead565b6040516105d091906149d2565b60405180910390f35b3480156105e557600080fd5b506105ee611f3f565b6040516105fb9190614973565b60405180910390f35b34801561061057600080fd5b5061062b600480360381019061062691906140b9565b6120b5565b6040516106389190614bd6565b60405180910390f35b34801561064d57600080fd5b5061066860048036038101906106639190613fae565b61223a565b005b34801561067657600080fd5b50610691600480360381019061068c9190613f33565b612250565b005b34801561069f57600080fd5b506106ba60048036038101906106b591906140b9565b6122b2565b6040516106c791906149d2565b60405180910390f35b3480156106dc57600080fd5b506106f760048036038101906106f291906140b9565b6123c5565b604051610708959493929190614c35565b60405180910390f35b61072b600480360381019061072691906140e2565b6124c0565b005b34801561073957600080fd5b506107426127c0565b60405161074f9190614951565b60405180910390f35b34801561076457600080fd5b5061077f600480360381019061077a91906140b9565b612936565b60405161078c9190614c1a565b60405180910390f35b3480156107a157600080fd5b506107bc60048036038101906107b791906140b9565b612a23565b6040516107c99190614bb4565b60405180910390f35b3480156107de57600080fd5b506107f960048036038101906107f49190613ea8565b612ba8565b60405161080691906149b7565b60405180910390f35b60007f80ac58cd000000000000000000000000000000000000000000000000000000007bffffffffffffffffffffffffffffffffffffffffffffffffffffffff1916827bffffffffffffffffffffffffffffffffffffffffffffffffffffffff191614806108da57507f5b5e139f000000000000000000000000000000000000000000000000000000007bffffffffffffffffffffffffffffffffffffffffffffffffffffffff1916827bffffffffffffffffffffffffffffffffffffffffffffffffffffffff1916145b806108ea57506108e982612c3c565b5b9050919050565b6108fb600b612ca6565b6000610907600b612cbc565b905060086040518060a001604052808381526020013373ffffffffffffffffffffffffffffffffffffffff168152602001848152602001600081526020016001151581525090806001815401808255809150506001900390600052602060002090600502016000909190919091506000820151816000015560208201518160010160006101000a81548173ffffffffffffffffffffffffffffffffffffffff021916908373ffffffffffffffffffffffffffffffffffffffff16021790555060408201518160020190805190602001906109e2929190613bde565b506060820151816003015560808201518160040160006101000a81548160ff02191690831515021790555050503373ffffffffffffffffffffffffffffffffffffffff167f715b5fb56f385eb51ddab38f20a936a4cfde1fe98d6312c87ba100e9cb47374b82846000604051610a5a93929190614d27565b60405180910390a25050565b606060008054610a759061508d565b80601f0160208091040260200160405190810160405280929190818152602001828054610aa19061508d565b8015610aee5780601f10610ac357610100808354040283529160200191610aee565b820191906000526020600020905b815481529060010190602001808311610ad157829003601f168201915b5050505050905090565b6000610b0382612cca565b6004600083815260200190815260200160002060009054906101000a900473ffffffffffffffffffffffffffffffffffffffff169050919050565b6000610b49826119d8565b90508073ffffffffffffffffffffffffffffffffffffffff168373ffffffffffffffffffffffffffffffffffffffff161415610bba576040517f08c379a0000000000000000000000000000000000000000000000000000000008152600401610bb190614b74565b60405180910390fd5b8073ffffffffffffffffffffffffffffffffffffffff16610bd9612d15565b73ffffffffffffffffffffffffffffffffffffffff161480610c085750610c0781610c02612d15565b612ba8565b5b610c47576040517f08c379a0000000000000000000000000000000000000000000000000000000008152600401610c3e90614b94565b60405180910390fd5b610c518383612d1d565b505050565b60606007805480602002602001604051908101604052809291908181526020016000905b82821015610d9e5783829060005260206000209060030201604051806060016040529081600082015481526020016001820160009054906101000a900473ffffffffffffffffffffffffffffffffffffffff1673ffffffffffffffffffffffffffffffffffffffff1673ffffffffffffffffffffffffffffffffffffffff168152602001600282018054610d0d9061508d565b80601f0160208091040260200160405190810160405280929190818152602001828054610d399061508d565b8015610d865780601f10610d5b57610100808354040283529160200191610d86565b820191906000526020600020905b815481529060010190602001808311610d6957829003601f168201915b50505050508152505081526020019060010190610c7a565b50505050905090565b610db8610db2612d15565b82612dd6565b610df7576040517f08c379a0000000000000000000000000000000000000000000000000000000008152600401610dee906149f4565b60405180910390fd5b610e02838383612e6b565b505050565b610e0f613c64565b60005b60078054905081101561101e578273ffffffffffffffffffffffffffffffffffffffff1660078281548110610e70577f4e487b7100000000000000000000000000000000000000000000000000000000600052603260045260246000fd5b906000526020600020906003020160010160009054906101000a900473ffffffffffffffffffffffffffffffffffffffff1673ffffffffffffffffffffffffffffffffffffffff16141561100b5760078181548110610ef8577f4e487b7100000000000000000000000000000000000000000000000000000000600052603260045260246000fd5b9060005260206000209060030201604051806060016040529081600082015481526020016001820160009054906101000a900473ffffffffffffffffffffffffffffffffffffffff1673ffffffffffffffffffffffffffffffffffffffff1673ffffffffffffffffffffffffffffffffffffffff168152602001600282018054610f819061508d565b80601f0160208091040260200160405190810160405280929190818152602001828054610fad9061508d565b8015610ffa5780601f10610fcf57610100808354040283529160200191610ffa565b820191906000526020600020905b815481529060010190602001808311610fdd57829003601f168201915b505050505081525050915050611020565b8080611016906150f0565b915050610e12565b505b919050565b61104083838360405180602001604052806000815250612250565b505050565b60606000805b600980549050811015611119578373ffffffffffffffffffffffffffffffffffffffff16600982815481106110a9577f4e487b7100000000000000000000000000000000000000000000000000000000600052603260045260246000fd5b906000526020600020906005020160010160009054906101000a900473ffffffffffffffffffffffffffffffffffffffff1673ffffffffffffffffffffffffffffffffffffffff161415611106578180611102906150f0565b9250505b8080611111906150f0565b91505061104b565b5060008167ffffffffffffffff81111561115c577f4e487b7100000000000000000000000000000000000000000000000000000000600052604160045260246000fd5b60405190808252806020026020018201604052801561119557816020015b611182613c9b565b81526020019060019003908161117a5790505b5090506000805b8251811015611414578573ffffffffffffffffffffffffffffffffffffffff16600982815481106111f6577f4e487b7100000000000000000000000000000000000000000000000000000000600052603260045260246000fd5b906000526020600020906005020160010160009054906101000a900473ffffffffffffffffffffffffffffffffffffffff1673ffffffffffffffffffffffffffffffffffffffff161415611401576009818154811061127e577f4e487b7100000000000000000000000000000000000000000000000000000000600052603260045260246000fd5b90600052602060002090600502016040518060a0016040529081600082015481526020016001820160009054906101000a900473ffffffffffffffffffffffffffffffffffffffff1673ffffffffffffffffffffffffffffffffffffffff1673ffffffffffffffffffffffffffffffffffffffff168152602001600282015481526020016003820180546113119061508d565b80601f016020809104026020016040519081016040528092919081815260200182805461133d9061508d565b801561138a5780601f1061135f5761010080835404028352916020019161138a565b820191906000526020600020905b81548152906001019060200180831161136d57829003601f168201915b505050505081526020016004820160009054906101000a900460ff1615151515815250508383815181106113e7577f4e487b7100000000000000000000000000000000000000000000000000000000600052603260045260246000fd5b602002602001018190525081806113fd906150f0565b9250505b808061140c906150f0565b91505061119c565b50819350505050919050565b6009818154811061143057600080fd5b90600052602060002090600502016000915090508060000154908060010160009054906101000a900473ffffffffffffffffffffffffffffffffffffffff16908060020154908060030180546114859061508d565b80601f01602080910402602001604051908101604052809291908181526020018280546114b19061508d565b80156114fe5780601f106114d3576101008083540402835291602001916114fe565b820191906000526020600020905b8154815290600101906020018083116114e157829003601f168201915b5050505050908060040160009054906101000a900460ff16905085565b60606000805b6008805490508110156115ef578373ffffffffffffffffffffffffffffffffffffffff166008828154811061157f577f4e487b7100000000000000000000000000000000000000000000000000000000600052603260045260246000fd5b906000526020600020906005020160010160009054906101000a900473ffffffffffffffffffffffffffffffffffffffff1673ffffffffffffffffffffffffffffffffffffffff1614156115dc5781806115d8906150f0565b9250505b80806115e7906150f0565b915050611521565b5060008167ffffffffffffffff811115611632577f4e487b7100000000000000000000000000000000000000000000000000000000600052604160045260246000fd5b60405190808252806020026020018201604052801561166b57816020015b611658613ce2565b8152602001906001900390816116505790505b5090506000805b82518110156118ea578573ffffffffffffffffffffffffffffffffffffffff16600882815481106116cc577f4e487b7100000000000000000000000000000000000000000000000000000000600052603260045260246000fd5b906000526020600020906005020160010160009054906101000a900473ffffffffffffffffffffffffffffffffffffffff1673ffffffffffffffffffffffffffffffffffffffff1614156118d75760088181548110611754577f4e487b7100000000000000000000000000000000000000000000000000000000600052603260045260246000fd5b90600052602060002090600502016040518060a0016040529081600082015481526020016001820160009054906101000a900473ffffffffffffffffffffffffffffffffffffffff1673ffffffffffffffffffffffffffffffffffffffff1673ffffffffffffffffffffffffffffffffffffffff1681526020016002820180546117dd9061508d565b80601f01602080910402602001604051908101604052809291908181526020018280546118099061508d565b80156118565780601f1061182b57610100808354040283529160200191611856565b820191906000526020600020905b81548152906001019060200180831161183957829003601f168201915b50505050508152602001600382015481526020016004820160009054906101000a900460ff1615151515815250508383815181106118bd577f4e487b7100000000000000000000000000000000000000000000000000000000600052603260045260246000fd5b602002602001018190525081806118d3906150f0565b9250505b80806118e2906150f0565b915050611672565b50819350505050919050565b6007818154811061190657600080fd5b90600052602060002090600302016000915090508060000154908060010160009054906101000a900473ffffffffffffffffffffffffffffffffffffffff16908060020180546119559061508d565b80601f01602080910402602001604051908101604052809291908181526020018280546119819061508d565b80156119ce5780601f106119a3576101008083540402835291602001916119ce565b820191906000526020600020905b8154815290600101906020018083116119b157829003601f168201915b5050505050905083565b6000806119e483613165565b9050600073ffffffffffffffffffffffffffffffffffffffff168173ffffffffffffffffffffffffffffffffffffffff161415611a56576040517f08c379a0000000000000000000000000000000000000000000000000000000008152600401611a4d90614b54565b60405180910390fd5b80915050919050565b611a67613c64565b6007600183611a769190614f7f565b81548110611aad577f4e487b7100000000000000000000000000000000000000000000000000000000600052603260045260246000fd5b9060005260206000209060030201604051806060016040529081600082015481526020016001820160009054906101000a900473ffffffffffffffffffffffffffffffffffffffff1673ffffffffffffffffffffffffffffffffffffffff1673ffffffffffffffffffffffffffffffffffffffff168152602001600282018054611b369061508d565b80601f0160208091040260200160405190810160405280929190818152602001828054611b629061508d565b8015611baf5780601f10611b8457610100808354040283529160200191611baf565b820191906000526020600020905b815481529060010190602001808311611b9257829003601f168201915b5050505050815250509050919050565b60008073ffffffffffffffffffffffffffffffffffffffff168273ffffffffffffffffffffffffffffffffffffffff161415611c30576040517f08c379a0000000000000000000000000000000000000000000000000000000008152600401611c2790614ad4565b60405180910390fd5b600360008373ffffffffffffffffffffffffffffffffffffffff1673ffffffffffffffffffffffffffffffffffffffff168152602001908152602001600020549050919050565b600060098281548110611cb3577f4e487b7100000000000000000000000000000000000000000000000000000000600052603260045260246000fd5b906000526020600020906005020160040160009054906101000a900460ff16611d11576040517f08c379a0000000000000000000000000000000000000000000000000000000008152600401611d0890614b34565b60405180910390fd5b60098281548110611d4b577f4e487b7100000000000000000000000000000000000000000000000000000000600052603260045260246000fd5b906000526020600020906005020160010160009054906101000a900473ffffffffffffffffffffffffffffffffffffffff169050919050565b6000611d90600a612ca6565b6000611d9c600a612cbc565b9050600760405180606001604052808381526020013373ffffffffffffffffffffffffffffffffffffffff1681526020018581525090806001815401808255809150506001900390600052602060002090600302016000909190919091506000820151816000015560208201518160010160006101000a81548173ffffffffffffffffffffffffffffffffffffffff021916908373ffffffffffffffffffffffffffffffffffffffff1602179055506040820151816002019080519060200190611e67929190613bde565b505050807f514f49a04456c7bde03bbe8a556f3c4f484146705d8155e61c23ad2aead863fc3385604051611e9c929190614921565b60405180910390a280915050919050565b606060018054611ebc9061508d565b80601f0160208091040260200160405190810160405280929190818152602001828054611ee89061508d565b8015611f355780601f10611f0a57610100808354040283529160200191611f35565b820191906000526020600020905b815481529060010190602001808311611f1857829003601f168201915b5050505050905090565b60606009805480602002602001604051908101604052809291908181526020016000905b828210156120ac57838290600052602060002090600502016040518060a0016040529081600082015481526020016001820160009054906101000a900473ffffffffffffffffffffffffffffffffffffffff1673ffffffffffffffffffffffffffffffffffffffff1673ffffffffffffffffffffffffffffffffffffffff168152602001600282015481526020016003820180546120009061508d565b80601f016020809104026020016040519081016040528092919081815260200182805461202c9061508d565b80156120795780601f1061204e57610100808354040283529160200191612079565b820191906000526020600020905b81548152906001019060200180831161205c57829003601f168201915b505050505081526020016004820160009054906101000a900460ff16151515158152505081526020019060010190611f63565b50505050905090565b6120bd613c9b565b60096001836120cc9190614f7f565b81548110612103577f4e487b7100000000000000000000000000000000000000000000000000000000600052603260045260246000fd5b90600052602060002090600502016040518060a0016040529081600082015481526020016001820160009054906101000a900473ffffffffffffffffffffffffffffffffffffffff1673ffffffffffffffffffffffffffffffffffffffff1673ffffffffffffffffffffffffffffffffffffffff168152602001600282015481526020016003820180546121969061508d565b80601f01602080910402602001604051908101604052809291908181526020018280546121c29061508d565b801561220f5780601f106121e45761010080835404028352916020019161220f565b820191906000526020600020905b8154815290600101906020018083116121f257829003601f168201915b505050505081526020016004820160009054906101000a900460ff1615151515815250509050919050565b61224c612245612d15565b83836131a2565b5050565b61226161225b612d15565b83612dd6565b6122a0576040517f08c379a0000000000000000000000000000000000000000000000000000000008152600401612297906149f4565b60405180910390fd5b6122ac8484848461330f565b50505050565b60606122bd82612cca565b60006006600084815260200190815260200160002080546122dd9061508d565b80601f01602080910402602001604051908101604052809291908181526020018280546123099061508d565b80156123565780601f1061232b57610100808354040283529160200191612356565b820191906000526020600020905b81548152906001019060200180831161233957829003601f168201915b50505050509050600061236761336b565b905060008151141561237d5781925050506123c0565b6000825111156123b257808260405160200161239a929190614896565b604051602081830303815290604052925050506123c0565b6123bb84613382565b925050505b919050565b600881815481106123d557600080fd5b90600052602060002090600502016000915090508060000154908060010160009054906101000a900473ffffffffffffffffffffffffffffffffffffffff16908060020180546124249061508d565b80601f01602080910402602001604051908101604052809291908181526020018280546124509061508d565b801561249d5780601f106124725761010080835404028352916020019161249d565b820191906000526020600020905b81548152906001019060200180831161248057829003601f168201915b5050505050908060030154908060040160009054906101000a900460ff16905085565b600882815481106124fa577f4e487b7100000000000000000000000000000000000000000000000000000000600052603260045260246000fd5b906000526020600020906005020160040160009054906101000a900460ff16612558576040517f08c379a000000000000000000000000000000000000000000000000000000000815260040161254f90614a74565b60405180910390fd5b600060086001846125699190614f7f565b815481106125a0577f4e487b7100000000000000000000000000000000000000000000000000000000600052603260045260246000fd5b9060005260206000209060050201905060018160030160008282546125c59190614f29565b925050819055506125d6600c612ca6565b60006125e2600c612cbc565b90506125ee33826133ea565b6125f88184613608565b60096040518060a001604052808381526020013373ffffffffffffffffffffffffffffffffffffffff1681526020018681526020018581526020016001151581525090806001815401808255809150506001900390600052602060002090600502016000909190919091506000820151816000015560208201518160010160006101000a81548173ffffffffffffffffffffffffffffffffffffffff021916908373ffffffffffffffffffffffffffffffffffffffff1602179055506040820151816002015560608201518160030190805190602001906126da929190613bde565b5060808201518160040160006101000a81548160ff02191690831515021790555050508160010160009054906101000a900473ffffffffffffffffffffffffffffffffffffffff1673ffffffffffffffffffffffffffffffffffffffff166108fc349081150290604051600060405180830381858888f19350505050158015612767573d6000803e3d6000fd5b503373ffffffffffffffffffffffffffffffffffffffff167f3fbeeae842b82e900ed212eb824be25abbbc0115b88260c7c9a21d843c44a71b8286866040516127b293929190614d65565b60405180910390a250505050565b60606008805480602002602001604051908101604052809291908181526020016000905b8282101561292d57838290600052602060002090600502016040518060a0016040529081600082015481526020016001820160009054906101000a900473ffffffffffffffffffffffffffffffffffffffff1673ffffffffffffffffffffffffffffffffffffffff1673ffffffffffffffffffffffffffffffffffffffff1681526020016002820180546128779061508d565b80601f01602080910402602001604051908101604052809291908181526020018280546128a39061508d565b80156128f05780601f106128c5576101008083540402835291602001916128f0565b820191906000526020600020905b8154815290600101906020018083116128d357829003601f168201915b50505050508152602001600382015481526020016004820160009054906101000a900460ff161515151581525050815260200190600101906127e4565b50505050905090565b600060098281548110612972577f4e487b7100000000000000000000000000000000000000000000000000000000600052603260045260246000fd5b906000526020600020906005020160040160009054906101000a900460ff166129d0576040517f08c379a00000000000000000000000000000000000000000000000000000000081526004016129c790614b34565b60405180910390fd5b60098281548110612a0a577f4e487b7100000000000000000000000000000000000000000000000000000000600052603260045260246000fd5b9060005260206000209060050201600201549050919050565b612a2b613ce2565b6008600183612a3a9190614f7f565b81548110612a71577f4e487b7100000000000000000000000000000000000000000000000000000000600052603260045260246000fd5b90600052602060002090600502016040518060a0016040529081600082015481526020016001820160009054906101000a900473ffffffffffffffffffffffffffffffffffffffff1673ffffffffffffffffffffffffffffffffffffffff1673ffffffffffffffffffffffffffffffffffffffff168152602001600282018054612afa9061508d565b80601f0160208091040260200160405190810160405280929190818152602001828054612b269061508d565b8015612b735780601f10612b4857610100808354040283529160200191612b73565b820191906000526020600020905b815481529060010190602001808311612b5657829003601f168201915b50505050508152602001600382015481526020016004820160009054906101000a900460ff1615151515815250509050919050565b6000600560008473ffffffffffffffffffffffffffffffffffffffff1673ffffffffffffffffffffffffffffffffffffffff16815260200190815260200160002060008373ffffffffffffffffffffffffffffffffffffffff1673ffffffffffffffffffffffffffffffffffffffff16815260200190815260200160002060009054906101000a900460ff16905092915050565b60007f01ffc9a7000000000000000000000000000000000000000000000000000000007bffffffffffffffffffffffffffffffffffffffffffffffffffffffff1916827bffffffffffffffffffffffffffffffffffffffffffffffffffffffff1916149050919050565b6001816000016000828254019250508190555050565b600081600001549050919050565b612cd38161367c565b612d12576040517f08c379a0000000000000000000000000000000000000000000000000000000008152600401612d0990614b54565b60405180910390fd5b50565b600033905090565b816004600083815260200190815260200160002060006101000a81548173ffffffffffffffffffffffffffffffffffffffff021916908373ffffffffffffffffffffffffffffffffffffffff160217905550808273ffffffffffffffffffffffffffffffffffffffff16612d90836119d8565b73ffffffffffffffffffffffffffffffffffffffff167f8c5be1e5ebec7d5bd14f71427d1e84f3dd0314c0f7b2291e5b200ac8c7c3b92560405160405180910390a45050565b600080612de2836119d8565b90508073ffffffffffffffffffffffffffffffffffffffff168473ffffffffffffffffffffffffffffffffffffffff161480612e245750612e238185612ba8565b5b80612e6257508373ffffffffffffffffffffffffffffffffffffffff16612e4a84610af8565b73ffffffffffffffffffffffffffffffffffffffff16145b91505092915050565b8273ffffffffffffffffffffffffffffffffffffffff16612e8b826119d8565b73ffffffffffffffffffffffffffffffffffffffff1614612ee1576040517f08c379a0000000000000000000000000000000000000000000000000000000008152600401612ed890614a34565b60405180910390fd5b600073ffffffffffffffffffffffffffffffffffffffff168273ffffffffffffffffffffffffffffffffffffffff161415612f51576040517f08c379a0000000000000000000000000000000000000000000000000000000008152600401612f4890614a94565b60405180910390fd5b612f5e83838360016136bd565b8273ffffffffffffffffffffffffffffffffffffffff16612f7e826119d8565b73ffffffffffffffffffffffffffffffffffffffff1614612fd4576040517f08c379a0000000000000000000000000000000000000000000000000000000008152600401612fcb90614a34565b60405180910390fd5b6004600082815260200190815260200160002060006101000a81549073ffffffffffffffffffffffffffffffffffffffff02191690556001600360008573ffffffffffffffffffffffffffffffffffffffff1673ffffffffffffffffffffffffffffffffffffffff168152602001908152602001600020600082825403925050819055506001600360008473ffffffffffffffffffffffffffffffffffffffff1673ffffffffffffffffffffffffffffffffffffffff16815260200190815260200160002060008282540192505081905550816002600083815260200190815260200160002060006101000a81548173ffffffffffffffffffffffffffffffffffffffff021916908373ffffffffffffffffffffffffffffffffffffffff160217905550808273ffffffffffffffffffffffffffffffffffffffff168473ffffffffffffffffffffffffffffffffffffffff167fddf252ad1be2c89b69c2b068fc378daa952ba7f163c4a11628f55a4df523b3ef60405160405180910390a461316083838360016136c3565b505050565b60006002600083815260200190815260200160002060009054906101000a900473ffffffffffffffffffffffffffffffffffffffff169050919050565b8173ffffffffffffffffffffffffffffffffffffffff168373ffffffffffffffffffffffffffffffffffffffff161415613211576040517f08c379a000000000000000000000000000000000000000000000000000000000815260040161320890614ab4565b60405180910390fd5b80600560008573ffffffffffffffffffffffffffffffffffffffff1673ffffffffffffffffffffffffffffffffffffffff16815260200190815260200160002060008473ffffffffffffffffffffffffffffffffffffffff1673ffffffffffffffffffffffffffffffffffffffff16815260200190815260200160002060006101000a81548160ff0219169083151502179055508173ffffffffffffffffffffffffffffffffffffffff168373ffffffffffffffffffffffffffffffffffffffff167f17307eab39ab6107e8899845ad3d59bd9653f200f220920489ca2b5937696c318360405161330291906149b7565b60405180910390a3505050565b61331a848484612e6b565b613326848484846136c9565b613365576040517f08c379a000000000000000000000000000000000000000000000000000000000815260040161335c90614a14565b60405180910390fd5b50505050565b606060405180602001604052806000815250905090565b606061338d82612cca565b600061339761336b565b905060008151116133b757604051806020016040528060008152506133e2565b806133c184613860565b6040516020016133d2929190614896565b6040516020818303038152906040525b915050919050565b600073ffffffffffffffffffffffffffffffffffffffff168273ffffffffffffffffffffffffffffffffffffffff16141561345a576040517f08c379a000000000000000000000000000000000000000000000000000000000815260040161345190614b14565b60405180910390fd5b6134638161367c565b156134a3576040517f08c379a000000000000000000000000000000000000000000000000000000000815260040161349a90614a54565b60405180910390fd5b6134b16000838360016136bd565b6134ba8161367c565b156134fa576040517f08c379a00000000000000000000000000000000000000000000000000000000081526004016134f190614a54565b60405180910390fd5b6001600360008473ffffffffffffffffffffffffffffffffffffffff1673ffffffffffffffffffffffffffffffffffffffff16815260200190815260200160002060008282540192505081905550816002600083815260200190815260200160002060006101000a81548173ffffffffffffffffffffffffffffffffffffffff021916908373ffffffffffffffffffffffffffffffffffffffff160217905550808273ffffffffffffffffffffffffffffffffffffffff16600073ffffffffffffffffffffffffffffffffffffffff167fddf252ad1be2c89b69c2b068fc378daa952ba7f163c4a11628f55a4df523b3ef60405160405180910390a46136046000838360016136c3565b5050565b6136118261367c565b613650576040517f08c379a000000000000000000000000000000000000000000000000000000000815260040161364790614af4565b60405180910390fd5b80600660008481526020019081526020016000209080519060200190613677929190613bde565b505050565b60008073ffffffffffffffffffffffffffffffffffffffff1661369e83613165565b73ffffffffffffffffffffffffffffffffffffffff1614159050919050565b50505050565b50505050565b60006136ea8473ffffffffffffffffffffffffffffffffffffffff16613984565b15613853578373ffffffffffffffffffffffffffffffffffffffff1663150b7a02613713612d15565b8786866040518563ffffffff1660e01b815260040161373594939291906148d5565b602060405180830381600087803b15801561374f57600080fd5b505af192505050801561378057506040513d601f19601f8201168201806040525081019061377d919061404f565b60015b613803573d80600081146137b0576040519150601f19603f3d011682016040523d82523d6000602084013e6137b5565b606091505b506000815114156137fb576040517f08c379a00000000000000000000000000000000000000000000000000000000081526004016137f290614a14565b60405180910390fd5b805181602001fd5b63150b7a0260e01b7bffffffffffffffffffffffffffffffffffffffffffffffffffffffff1916817bffffffffffffffffffffffffffffffffffffffffffffffffffffffff191614915050613858565b600190505b949350505050565b60606000600161386f846139a7565b01905060008167ffffffffffffffff8111156138b4577f4e487b7100000000000000000000000000000000000000000000000000000000600052604160045260246000fd5b6040519080825280601f01601f1916602001820160405280156138e65781602001600182028036833780820191505090505b509050600082602001820190505b600115613979578080600190039150507f3031323334353637383961626364656600000000000000000000000000000000600a86061a8153600a8581613963577f4e487b7100000000000000000000000000000000000000000000000000000000600052601260045260246000fd5b049450600085141561397457613979565b6138f4565b819350505050919050565b6000808273ffffffffffffffffffffffffffffffffffffffff163b119050919050565b600080600090507a184f03e93ff9f4daa797ed6e38ed64bf6a1f0100000000000000008310613a2b577a184f03e93ff9f4daa797ed6e38ed64bf6a1f0100000000000000008381613a21577f4e487b7100000000000000000000000000000000000000000000000000000000600052601260045260246000fd5b0492506040810190505b6d04ee2d6d415b85acef81000000008310613a8e576d04ee2d6d415b85acef81000000008381613a84577f4e487b7100000000000000000000000000000000000000000000000000000000600052601260045260246000fd5b0492506020810190505b662386f26fc100008310613ae357662386f26fc100008381613ad9577f4e487b7100000000000000000000000000000000000000000000000000000000600052601260045260246000fd5b0492506010810190505b6305f5e1008310613b32576305f5e1008381613b28577f4e487b7100000000000000000000000000000000000000000000000000000000600052601260045260246000fd5b0492506008810190505b6127108310613b7d576127108381613b73577f4e487b7100000000000000000000000000000000000000000000000000000000600052601260045260246000fd5b0492506004810190505b60648310613bc65760648381613bbc577f4e487b7100000000000000000000000000000000000000000000000000000000600052601260045260246000fd5b0492506002810190505b600a8310613bd5576001810190505b80915050919050565b828054613bea9061508d565b90600052602060002090601f016020900481019282613c0c5760008555613c53565b82601f10613c2557805160ff1916838001178555613c53565b82800160010185558215613c53579182015b82811115613c52578251825591602001919060010190613c37565b5b509050613c609190613d29565b5090565b604051806060016040528060008152602001600073ffffffffffffffffffffffffffffffffffffffff168152602001606081525090565b6040518060a0016040528060008152602001600073ffffffffffffffffffffffffffffffffffffffff16815260200160008152602001606081526020016000151581525090565b6040518060a0016040528060008152602001600073ffffffffffffffffffffffffffffffffffffffff16815260200160608152602001600081526020016000151581525090565b5b80821115613d42576000816000905550600101613d2a565b5090565b6000613d59613d5484614dc8565b614da3565b905082815260208101848484011115613d7157600080fd5b613d7c84828561504b565b509392505050565b6000613d97613d9284614df9565b614da3565b905082815260208101848484011115613daf57600080fd5b613dba84828561504b565b509392505050565b600081359050613dd181615545565b92915050565b600081359050613de68161555c565b92915050565b600081359050613dfb81615573565b92915050565b600081519050613e1081615573565b92915050565b600082601f830112613e2757600080fd5b8135613e37848260208601613d46565b91505092915050565b600082601f830112613e5157600080fd5b8135613e61848260208601613d84565b91505092915050565b600081359050613e798161558a565b92915050565b600060208284031215613e9157600080fd5b6000613e9f84828501613dc2565b91505092915050565b60008060408385031215613ebb57600080fd5b6000613ec985828601613dc2565b9250506020613eda85828601613dc2565b9150509250929050565b600080600060608486031215613ef957600080fd5b6000613f0786828701613dc2565b9350506020613f1886828701613dc2565b9250506040613f2986828701613e6a565b9150509250925092565b60008060008060808587031215613f4957600080fd5b6000613f5787828801613dc2565b9450506020613f6887828801613dc2565b9350506040613f7987828801613e6a565b925050606085013567ffffffffffffffff811115613f9657600080fd5b613fa287828801613e16565b91505092959194509250565b60008060408385031215613fc157600080fd5b6000613fcf85828601613dc2565b9250506020613fe085828601613dd7565b9150509250929050565b60008060408385031215613ffd57600080fd5b600061400b85828601613dc2565b925050602061401c85828601613e6a565b9150509250929050565b60006020828403121561403857600080fd5b600061404684828501613dec565b91505092915050565b60006020828403121561406157600080fd5b600061406f84828501613e01565b91505092915050565b60006020828403121561408a57600080fd5b600082013567ffffffffffffffff8111156140a457600080fd5b6140b084828501613e40565b91505092915050565b6000602082840312156140cb57600080fd5b60006140d984828501613e6a565b91505092915050565b600080604083850312156140f557600080fd5b600061410385828601613e6a565b925050602083013567ffffffffffffffff81111561412057600080fd5b61412c85828601613e40565b9150509250929050565b60006141428383614600565b905092915050565b600061415683836146ec565b905092915050565b600061416a83836147d8565b905092915050565b61417b81614fc5565b82525050565b61418a81614fc5565b82525050565b61419981614fb3565b82525050565b6141a881614fb3565b82525050565b60006141b982614e5a565b6141c38185614eb8565b9350836020820285016141d585614e2a565b8060005b8581101561421157848403895281516141f28582614136565b94506141fd83614e91565b925060208a019950506001810190506141d9565b50829750879550505050505092915050565b600061422e82614e65565b6142388185614ec9565b93508360208202850161424a85614e3a565b8060005b858110156142865784840389528151614267858261414a565b945061427283614e9e565b925060208a0199505060018101905061424e565b50829750879550505050505092915050565b60006142a382614e70565b6142ad8185614eda565b9350836020820285016142bf85614e4a565b8060005b858110156142fb57848403895281516142dc858261415e565b94506142e783614eab565b925060208a019950506001810190506142c3565b50829750879550505050505092915050565b61431681614fd7565b82525050565b61432581614fd7565b82525050565b600061433682614e7b565b6143408185614eeb565b935061435081856020860161505a565b614359816151c6565b840191505092915050565b61436d81615039565b82525050565b600061437e82614e86565b6143888185614efc565b935061439881856020860161505a565b6143a1816151c6565b840191505092915050565b60006143b782614e86565b6143c18185614f0d565b93506143d181856020860161505a565b6143da816151c6565b840191505092915050565b60006143f082614e86565b6143fa8185614f1e565b935061440a81856020860161505a565b80840191505092915050565b6000614423602d83614f0d565b915061442e826151d7565b604082019050919050565b6000614446603283614f0d565b915061445182615226565b604082019050919050565b6000614469602583614f0d565b915061447482615275565b604082019050919050565b600061448c601c83614f0d565b9150614497826152c4565b602082019050919050565b60006144af601983614f0d565b91506144ba826152ed565b602082019050919050565b60006144d2602483614f0d565b91506144dd82615316565b604082019050919050565b60006144f5601983614f0d565b915061450082615365565b602082019050919050565b6000614518602983614f0d565b91506145238261538e565b604082019050919050565b600061453b602e83614f0d565b9150614546826153dd565b604082019050919050565b600061455e602083614f0d565b91506145698261542c565b602082019050919050565b6000614581601a83614f0d565b915061458c82615455565b602082019050919050565b60006145a4601883614f0d565b91506145af8261547e565b602082019050919050565b60006145c7602183614f0d565b91506145d2826154a7565b604082019050919050565b60006145ea603d83614f0d565b91506145f5826154f6565b604082019050919050565b600060a0830160008301516146186000860182614878565b50602083015161462b6020860182614172565b50604083015184820360408601526146438282614373565b91505060608301516146586060860182614878565b50608083015161466b608086018261430d565b508091505092915050565b600060a08301600083015161468e6000860182614878565b5060208301516146a16020860182614172565b50604083015184820360408601526146b98282614373565b91505060608301516146ce6060860182614878565b5060808301516146e1608086018261430d565b508091505092915050565b600060a0830160008301516147046000860182614878565b5060208301516147176020860182614190565b50604083015161472a6040860182614878565b50606083015184820360608601526147428282614373565b9150506080830151614757608086018261430d565b508091505092915050565b600060a08301600083015161477a6000860182614878565b50602083015161478d6020860182614190565b5060408301516147a06040860182614878565b50606083015184820360608601526147b88282614373565b91505060808301516147cd608086018261430d565b508091505092915050565b60006060830160008301516147f06000860182614878565b5060208301516148036020860182614190565b506040830151848203604086015261481b8282614373565b9150508091505092915050565b60006060830160008301516148406000860182614878565b5060208301516148536020860182614190565b506040830151848203604086015261486b8282614373565b9150508091505092915050565b6148818161502f565b82525050565b6148908161502f565b82525050565b60006148a282856143e5565b91506148ae82846143e5565b91508190509392505050565b60006020820190506148cf600083018461419f565b92915050565b60006080820190506148ea600083018761419f565b6148f7602083018661419f565b6149046040830185614887565b8181036060830152614916818461432b565b905095945050505050565b6000604082019050614936600083018561419f565b818103602083015261494881846143ac565b90509392505050565b6000602082019050818103600083015261496b81846141ae565b905092915050565b6000602082019050818103600083015261498d8184614223565b905092915050565b600060208201905081810360008301526149af8184614298565b905092915050565b60006020820190506149cc600083018461431c565b92915050565b600060208201905081810360008301526149ec81846143ac565b905092915050565b60006020820190508181036000830152614a0d81614416565b9050919050565b60006020820190508181036000830152614a2d81614439565b9050919050565b60006020820190508181036000830152614a4d8161445c565b9050919050565b60006020820190508181036000830152614a6d8161447f565b9050919050565b60006020820190508181036000830152614a8d816144a2565b9050919050565b60006020820190508181036000830152614aad816144c5565b9050919050565b60006020820190508181036000830152614acd816144e8565b9050919050565b60006020820190508181036000830152614aed8161450b565b9050919050565b60006020820190508181036000830152614b0d8161452e565b9050919050565b60006020820190508181036000830152614b2d81614551565b9050919050565b60006020820190508181036000830152614b4d81614574565b9050919050565b60006020820190508181036000830152614b6d81614597565b9050919050565b60006020820190508181036000830152614b8d816145ba565b9050919050565b60006020820190508181036000830152614bad816145dd565b9050919050565b60006020820190508181036000830152614bce8184614676565b905092915050565b60006020820190508181036000830152614bf08184614762565b905092915050565b60006020820190508181036000830152614c128184614828565b905092915050565b6000602082019050614c2f6000830184614887565b92915050565b600060a082019050614c4a6000830188614887565b614c576020830187614181565b8181036040830152614c6981866143ac565b9050614c786060830185614887565b614c85608083018461431c565b9695505050505050565b6000606082019050614ca46000830186614887565b614cb1602083018561419f565b8181036040830152614cc381846143ac565b9050949350505050565b600060a082019050614ce26000830188614887565b614cef602083018761419f565b614cfc6040830186614887565b8181036060830152614d0e81856143ac565b9050614d1d608083018461431c565b9695505050505050565b6000606082019050614d3c6000830186614887565b8181036020830152614d4e81856143ac565b9050614d5d6040830184614364565b949350505050565b6000606082019050614d7a6000830186614887565b614d876020830185614887565b8181036040830152614d9981846143ac565b9050949350505050565b6000614dad614dbe565b9050614db982826150bf565b919050565b6000604051905090565b600067ffffffffffffffff821115614de357614de2615197565b5b614dec826151c6565b9050602081019050919050565b600067ffffffffffffffff821115614e1457614e13615197565b5b614e1d826151c6565b9050602081019050919050565b6000819050602082019050919050565b6000819050602082019050919050565b6000819050602082019050919050565b600081519050919050565b600081519050919050565b600081519050919050565b600081519050919050565b600081519050919050565b6000602082019050919050565b6000602082019050919050565b6000602082019050919050565b600082825260208201905092915050565b600082825260208201905092915050565b600082825260208201905092915050565b600082825260208201905092915050565b600082825260208201905092915050565b600082825260208201905092915050565b600081905092915050565b6000614f348261502f565b9150614f3f8361502f565b9250827fffffffffffffffffffffffffffffffffffffffffffffffffffffffffffffffff03821115614f7457614f73615139565b5b828201905092915050565b6000614f8a8261502f565b9150614f958361502f565b925082821015614fa857614fa7615139565b5b828203905092915050565b6000614fbe8261500f565b9050919050565b6000614fd08261500f565b9050919050565b60008115159050919050565b60007fffffffff0000000000000000000000000000000000000000000000000000000082169050919050565b600073ffffffffffffffffffffffffffffffffffffffff82169050919050565b6000819050919050565b60006150448261502f565b9050919050565b82818337600083830152505050565b60005b8381101561507857808201518184015260208101905061505d565b83811115615087576000848401525b50505050565b600060028204905060018216806150a557607f821691505b602082108114156150b9576150b8615168565b5b50919050565b6150c8826151c6565b810181811067ffffffffffffffff821117156150e7576150e6615197565b5b80604052505050565b60006150fb8261502f565b91507fffffffffffffffffffffffffffffffffffffffffffffffffffffffffffffffff82141561512e5761512d615139565b5b600182019050919050565b7f4e487b7100000000000000000000000000000000000000000000000000000000600052601160045260246000fd5b7f4e487b7100000000000000000000000000000000000000000000000000000000600052602260045260246000fd5b7f4e487b7100000000000000000000000000000000000000000000000000000000600052604160045260246000fd5b6000601f19601f8301169050919050565b7f4552433732313a2063616c6c6572206973206e6f7420746f6b656e206f776e6560008201527f72206f7220617070726f76656400000000000000000000000000000000000000602082015250565b7f4552433732313a207472616e7366657220746f206e6f6e20455243373231526560008201527f63656976657220696d706c656d656e7465720000000000000000000000000000602082015250565b7f4552433732313a207472616e736665722066726f6d20696e636f72726563742060008201527f6f776e6572000000000000000000000000000000000000000000000000000000602082015250565b7f4552433732313a20746f6b656e20616c7265616479206d696e74656400000000600082015250565b7f436f6c6c656374696f6e20646f6573206e6f7420657869737400000000000000600082015250565b7f4552433732313a207472616e7366657220746f20746865207a65726f2061646460008201527f7265737300000000000000000000000000000000000000000000000000000000602082015250565b7f4552433732313a20617070726f766520746f2063616c6c657200000000000000600082015250565b7f4552433732313a2061646472657373207a65726f206973206e6f74206120766160008201527f6c6964206f776e65720000000000000000000000000000000000000000000000602082015250565b7f45524337323155524953746f726167653a2055524920736574206f66206e6f6e60008201527f6578697374656e7420746f6b656e000000000000000000000000000000000000602082015250565b7f4552433732313a206d696e7420746f20746865207a65726f2061646472657373600082015250565b7f436572746966696361746520646f6573206e6f74206578697374000000000000600082015250565b7f4552433732313a20696e76616c696420746f6b656e2049440000000000000000600082015250565b7f4552433732313a20617070726f76616c20746f2063757272656e74206f776e6560008201527f7200000000000000000000000000000000000000000000000000000000000000602082015250565b7f4552433732313a20617070726f76652063616c6c6572206973206e6f7420746f60008201527f6b656e206f776e6572206f7220617070726f76656420666f7220616c6c000000602082015250565b61554e81614fb3565b811461555957600080fd5b50565b61556581614fd7565b811461557057600080fd5b50565b61557c81614fe3565b811461558757600080fd5b50565b6155938161502f565b811461559e57600080fd5b5056fea264697066735822122039b0424574930eaa08c4ef9742c160afda20e58e1088c5eef3c2a6a64177b89464736f6c63430008040033",
  "linkReferences": {},
  "deployedLinkReferences": {}
}