{
  "_format": "hh-sol-artifact-1",
  "contractName": "ArtAttribution",
  "sourceName": "contracts/ArtAttribution.sol",
  "abi": [
    {
      "inputs": [],
      "stateMutability": "nonpayable",
      "type": "constructor"
    },
    {
      "anonymous": false,
      "inputs": [
        {
          "indexed": false,
          "internalType": "uint256",
          "name": "certificateId",
          "type": "uint256"
        },
        {
          "indexed": true,
          "internalType": "address",
          "name": "owner",
          "type": "address"
        },
        {
          "indexed": false,
          "internalType": "uint256",
          "name": "collectionId",
          "type": "uint256"
        },
        {
          "indexed": false,
          "internalType": "string",
          "name": "certificateUri",
          "type": "string"
        }
      ],
      "name": "ArtworkAttributed",
      "type": "event"
    },
    {
      "anonymous": false,
      "inputs": [
        {
          "indexed": false,
          "internalType": "uint256",
          "name": "collectionId",
          "type": "uint256"
        },
        {
          "indexed": true,
          "internalType": "address",
          "name": "creator",
          "type": "address"
        },
        {
          "indexed": false,
          "internalType": "string",
          "name": "collectionUri",
          "type": "string"
        },
        {
          "indexed": false,
          "internalType": "uint256",
          "name": "totalAttributions",
          "type": "uint256"
        }
      ],
      "name": "CollectionCreated",
      "type": "event"
    },
    {
      "anonymous": false,
      "inputs": [
        {
          "indexed": true,
          "internalType": "uint256",
          "name": "memberId",
          "type": "uint256"
        },
        {
          "indexed": false,
          "internalType": "address",
          "name": "memberAddress",
          "type": "address"
        },
        {
          "indexed": false,
          "internalType": "string",
          "name": "dataUri",
          "type": "string"
        }
      ],
      "name": "NewMember",
      "type": "event"
    },
    {
      "inputs": [
        {
          "internalType": "string",
          "name": "dataUri",
          "type": "string"
        }
      ],
      "name": "addMember",
      "outputs": [
        {
          "internalType": "uint256",
          "name": "",
          "type": "uint256"
        }
      ],
      "stateMutability": "nonpayable",
      "type": "function"
    },
    {
      "inputs": [
        {
          "internalType": "uint256",
          "name": "",
          "type": "uint256"
        }
      ],
      "name": "artCollections",
      "outputs": [
        {
          "internalType": "uint256",
          "name": "collectionId",
          "type": "uint256"
        },
        {
          "internalType": "address payable",
          "name": "creator",
          "type": "address"
        },
        {
          "internalType": "string",
          "name": "collectionUri",
          "type": "string"
        },
        {
          "internalType": "uint256",
          "name": "totalAttributions",
          "type": "uint256"
        },
        {
          "internalType": "bool",
          "name": "exists",
          "type": "bool"
        }
      ],
      "stateMutability": "view",
      "type": "function"
    },
    {
      "inputs": [
        {
          "internalType": "uint256",
          "name": "_collectionId",
          "type": "uint256"
        },
        {
          "internalType": "string",
          "name": "certificateUri",
          "type": "string"
        }
      ],
      "name": "attributeCollection",
      "outputs": [],
      "stateMutability": "payable",
      "type": "function"
    },
    {
      "inputs": [
        {
          "internalType": "uint256",
          "name": "",
          "type": "uint256"
        }
      ],
      "name": "attributionCertificates",
      "outputs": [
        {
          "internalType": "uint256",
          "name": "certificateId",
          "type": "uint256"
        },
        {
          "internalType": "address",
          "name": "owner",
          "type": "address"
        },
        {
          "internalType": "uint256",
          "name": "collectionId",
          "type": "uint256"
        },
        {
          "internalType": "string",
          "name": "certificateUri",
          "type": "string"
        },
        {
          "internalType": "bool",
          "name": "exists",
          "type": "bool"
        }
      ],
      "stateMutability": "view",
      "type": "function"
    },
    {
      "inputs": [],
      "name": "contract_creator",
      "outputs": [
        {
          "internalType": "address",
          "name": "",
          "type": "address"
        }
      ],
      "stateMutability": "view",
      "type": "function"
    },
    {
      "inputs": [
        {
          "internalType": "string",
          "name": "collectionUri",
          "type": "string"
        }
      ],
      "name": "createCollection",
      "outputs": [],
      "stateMutability": "nonpayable",
      "type": "function"
    },
    {
      "inputs": [],
      "name": "fetchAllCertificates",
      "outputs": [
        {
          "components": [
            {
              "internalType": "uint256",
              "name": "certificateId",
              "type": "uint256"
            },
            {
              "internalType": "address",
              "name": "owner",
              "type": "address"
            },
            {
              "internalType": "uint256",
              "name": "collectionId",
              "type": "uint256"
            },
            {
              "internalType": "string",
              "name": "certificateUri",
              "type": "string"
            },
            {
              "internalType": "bool",
              "name": "exists",
              "type": "bool"
            }
          ],
          "internalType": "struct ArtAttribution.AttributionCertificate[]",
          "name": "",
          "type": "tuple[]"
        }
      ],
      "stateMutability": "view",
      "type": "function"
    },
    {
      "inputs": [],
      "name": "fetchAllCollections",
      "outputs": [
        {
          "components": [
            {
              "internalType": "uint256",
              "name": "collectionId",
              "type": "uint256"
            },
            {
              "internalType": "address payable",
              "name": "creator",
              "type": "address"
            },
            {
              "internalType": "string",
              "name": "collectionUri",
              "type": "string"
            },
            {
              "internalType": "uint256",
              "name": "totalAttributions",
              "type": "uint256"
            },
            {
              "internalType": "bool",
              "name": "exists",
              "type": "bool"
            }
          ],
          "internalType": "struct ArtAttribution.ArtCollection[]",
          "name": "",
          "type": "tuple[]"
        }
      ],
      "stateMutability": "view",
      "type": "function"
    },
    {
      "inputs": [],
      "name": "fetchAllMembers",
      "outputs": [
        {
          "components": [
            {
              "internalType": "uint256",
              "name": "memberId",
              "type": "uint256"
            },
            {
              "internalType": "address",
              "name": "_address",
              "type": "address"
            },
            {
              "internalType": "string",
              "name": "dataUri",
              "type": "string"
            }
          ],
          "internalType": "struct ArtAttribution.Member[]",
          "name": "",
          "type": "tuple[]"
        }
      ],
      "stateMutability": "view",
      "type": "function"
    },
    {
      "inputs": [
        {
          "internalType": "uint256",
          "name": "id",
          "type": "uint256"
        }
      ],
      "name": "getCertificateById",
      "outputs": [
        {
          "components": [
            {
              "internalType": "uint256",
              "name": "certificateId",
              "type": "uint256"
            },
            {
              "internalType": "address",
              "name": "owner",
              "type": "address"
            },
            {
              "internalType": "uint256",
              "name": "collectionId",
              "type": "uint256"
            },
            {
              "internalType": "string",
              "name": "certificateUri",
              "type": "string"
            },
            {
              "internalType": "bool",
              "name": "exists",
              "type": "bool"
            }
          ],
          "internalType": "struct ArtAttribution.AttributionCertificate",
          "name": "",
          "type": "tuple"
        }
      ],
      "stateMutability": "view",
      "type": "function"
    },
    {
      "inputs": [
        {
          "internalType": "uint256",
          "name": "_certificateId",
          "type": "uint256"
        }
      ],
      "name": "getCertificateCollection",
      "outputs": [
        {
          "internalType": "uint256",
          "name": "",
          "type": "uint256"
        }
      ],
      "stateMutability": "view",
      "type": "function"
    },
    {
      "inputs": [
        {
          "internalType": "uint256",
          "name": "_certificateId",
          "type": "uint256"
        }
      ],
      "name": "getCertificateOwner",
      "outputs": [
        {
          "internalType": "address",
          "name": "",
          "type": "address"
        }
      ],
      "stateMutability": "view",
      "type": "function"
    },
    {
      "inputs": [
        {
          "internalType": "uint256",
          "name": "id",
          "type": "uint256"
        }
      ],
      "name": "getCollectionById",
      "outputs": [
        {
          "components": [
            {
              "internalType": "uint256",
              "name": "collectionId",
              "type": "uint256"
            },
            {
              "internalType": "address payable",
              "name": "creator",
              "type": "address"
            },
            {
              "internalType": "string",
              "name": "collectionUri",
              "type": "string"
            },
            {
              "internalType": "uint256",
              "name": "totalAttributions",
              "type": "uint256"
            },
            {
              "internalType": "bool",
              "name": "exists",
              "type": "bool"
            }
          ],
          "internalType": "struct ArtAttribution.ArtCollection",
          "name": "",
          "type": "tuple"
        }
      ],
      "stateMutability": "view",
      "type": "function"
    },
    {
      "inputs": [
        {
          "internalType": "address",
          "name": "_address",
          "type": "address"
        }
      ],
      "name": "getMemberByAddress",
      "outputs": [
        {
          "components": [
            {
              "internalType": "uint256",
              "name": "memberId",
              "type": "uint256"
            },
            {
              "internalType": "address",
              "name": "_address",
              "type": "address"
            },
            {
              "internalType": "string",
              "name": "dataUri",
              "type": "string"
            }
          ],
          "internalType": "struct ArtAttribution.Member",
          "name": "",
          "type": "tuple"
        }
      ],
      "stateMutability": "view",
      "type": "function"
    },
    {
      "inputs": [
        {
          "internalType": "uint256",
          "name": "id",
          "type": "uint256"
        }
      ],
      "name": "getMemberById",
      "outputs": [
        {
          "components": [
            {
              "internalType": "uint256",
              "name": "memberId",
              "type": "uint256"
            },
            {
              "internalType": "address",
              "name": "_address",
              "type": "address"
            },
            {
              "internalType": "string",
              "name": "dataUri",
              "type": "string"
            }
          ],
          "internalType": "struct ArtAttribution.Member",
          "name": "",
          "type": "tuple"
        }
      ],
      "stateMutability": "view",
      "type": "function"
    },
    {
      "inputs": [
        {
          "internalType": "address",
          "name": "owner",
          "type": "address"
        }
      ],
      "name": "getOwnedCertificates",
      "outputs": [
        {
          "components": [
            {
              "internalType": "uint256",
              "name": "certificateId",
              "type": "uint256"
            },
            {
              "internalType": "address",
              "name": "owner",
              "type": "address"
            },
            {
              "internalType": "uint256",
              "name": "collectionId",
              "type": "uint256"
            },
            {
              "internalType": "string",
              "name": "certificateUri",
              "type": "string"
            },
            {
              "internalType": "bool",
              "name": "exists",
              "type": "bool"
            }
          ],
          "internalType": "struct ArtAttribution.AttributionCertificate[]",
          "name": "",
          "type": "tuple[]"
        }
      ],
      "stateMutability": "view",
      "type": "function"
    },
    {
      "inputs": [
        {
          "internalType": "address",
          "name": "creator",
          "type": "address"
        }
      ],
      "name": "getOwnedCollections",
      "outputs": [
        {
          "components": [
            {
              "internalType": "uint256",
              "name": "collectionId",
              "type": "uint256"
            },
            {
              "internalType": "address payable",
              "name": "creator",
              "type": "address"
            },
            {
              "internalType": "string",
              "name": "collectionUri",
              "type": "string"
            },
            {
              "internalType": "uint256",
              "name": "totalAttributions",
              "type": "uint256"
            },
            {
              "internalType": "bool",
              "name": "exists",
              "type": "bool"
            }
          ],
          "internalType": "struct ArtAttribution.ArtCollection[]",
          "name": "",
          "type": "tuple[]"
        }
      ],
      "stateMutability": "view",
      "type": "function"
    },
    {
      "inputs": [
        {
          "internalType": "uint256",
          "name": "",
          "type": "uint256"
        }
      ],
      "name": "members",
      "outputs": [
        {
          "internalType": "uint256",
          "name": "memberId",
          "type": "uint256"
        },
        {
          "internalType": "address",
          "name": "_address",
          "type": "address"
        },
        {
          "internalType": "string",
          "name": "dataUri",
          "type": "string"
        }
      ],
      "stateMutability": "view",
      "type": "function"
    }
  ],
  "bytecode": "0x608060405234801561001057600080fd5b5033600660006101000a81548173ffffffffffffffffffffffffffffffffffffffff021916908373ffffffffffffffffffffffffffffffffffffffff16021790555061317d806100616000396000f3fe6080604052600436106101095760003560e01c8063918f968711610095578063cc3b6e4c11610064578063cc3b6e4c146103e3578063cc63313014610424578063d51b2d0614610440578063d63853c31461046b578063e547cb85146104a857610109565b8063918f96871461031357806396260cdd146103505780639d735caf1461037b578063bf5c2920146103b857610109565b80634a4db7fc116100dc5780634a4db7fc146101dc5780634c07d60e1461021d5780635daf08ca1461025a5780636f80886c1461029957806384e814ef146102d657610109565b8063059dfe131461010e5780631738e04b146101375780633dd9899f14610162578063495f49721461019f575b600080fd5b34801561011a57600080fd5b5061013560048036038101906101309190612427565b6104e5565b005b34801561014357600080fd5b5061014c61065a565b6040516101599190612ac6565b60405180910390f35b34801561016e57600080fd5b50610189600480360381019061018491906123fe565b6107ab565b6040516101969190612b6c565b60405180910390f35b3480156101ab57600080fd5b506101c660048036038101906101c191906123fe565b6109c9565b6040516101d39190612aa4565b60405180910390f35b3480156101e857600080fd5b5061020360048036038101906101fe9190612468565b610da4565b604051610214959493929190612c41565b60405180910390f35b34801561022957600080fd5b50610244600480360381019061023f91906123fe565b610e9f565b6040516102519190612a82565b60405180910390f35b34801561026657600080fd5b50610281600480360381019061027c9190612468565b61127a565b60405161029093929190612c03565b60405180910390f35b3480156102a557600080fd5b506102c060048036038101906102bb9190612468565b61135c565b6040516102cd9190612b6c565b60405180910390f35b3480156102e257600080fd5b506102fd60048036038101906102f89190612468565b6114bc565b60405161030a9190612a37565b60405180910390f35b34801561031f57600080fd5b5061033a60048036038101906103359190612427565b6115c9565b6040516103479190612b8e565b60405180910390f35b34801561035c57600080fd5b506103656116f2565b6040516103729190612aa4565b60405180910390f35b34801561038757600080fd5b506103a2600480360381019061039d9190612468565b611868565b6040516103af9190612b4a565b60405180910390f35b3480156103c457600080fd5b506103cd6119ed565b6040516103da9190612a37565b60405180910390f35b3480156103ef57600080fd5b5061040a60048036038101906104059190612468565b611a13565b60405161041b959493929190612ba9565b60405180910390f35b61043e60048036038101906104399190612491565b611b0e565b005b34801561044c57600080fd5b50610455611df9565b6040516104629190612a82565b60405180910390f35b34801561047757600080fd5b50610492600480360381019061048d9190612468565b611f6f565b60405161049f9190612b8e565b60405180910390f35b3480156104b457600080fd5b506104cf60048036038101906104ca9190612468565b61205c565b6040516104dc9190612b28565b60405180910390f35b6104ef60046121e0565b60006104fb60046121f6565b905060016040518060a001604052808381526020013373ffffffffffffffffffffffffffffffffffffffff168152602001848152602001600081526020016001151581525090806001815401808255809150506001900390600052602060002090600502016000909190919091506000820151816000015560208201518160010160006101000a81548173ffffffffffffffffffffffffffffffffffffffff021916908373ffffffffffffffffffffffffffffffffffffffff16021790555060408201518160020190805190602001906105d6929190612204565b506060820151816003015560808201518160040160006101000a81548160ff02191690831515021790555050503373ffffffffffffffffffffffffffffffffffffffff167f715b5fb56f385eb51ddab38f20a936a4cfde1fe98d6312c87ba100e9cb47374b8284600060405161064e93929190612c9b565b60405180910390a25050565b60606000805480602002602001604051908101604052809291908181526020016000905b828210156107a25783829060005260206000209060030201604051806060016040529081600082015481526020016001820160009054906101000a900473ffffffffffffffffffffffffffffffffffffffff1673ffffffffffffffffffffffffffffffffffffffff1673ffffffffffffffffffffffffffffffffffffffff16815260200160028201805461071190612f7d565b80601f016020809104026020016040519081016040528092919081815260200182805461073d90612f7d565b801561078a5780601f1061075f5761010080835404028352916020019161078a565b820191906000526020600020905b81548152906001019060200180831161076d57829003601f168201915b5050505050815250508152602001906001019061067e565b50505050905090565b6107b361228a565b60005b6000805490508110156109c2578273ffffffffffffffffffffffffffffffffffffffff1660008281548110610814577f4e487b7100000000000000000000000000000000000000000000000000000000600052603260045260246000fd5b906000526020600020906003020160010160009054906101000a900473ffffffffffffffffffffffffffffffffffffffff1673ffffffffffffffffffffffffffffffffffffffff1614156109af576000818154811061089c577f4e487b7100000000000000000000000000000000000000000000000000000000600052603260045260246000fd5b9060005260206000209060030201604051806060016040529081600082015481526020016001820160009054906101000a900473ffffffffffffffffffffffffffffffffffffffff1673ffffffffffffffffffffffffffffffffffffffff1673ffffffffffffffffffffffffffffffffffffffff16815260200160028201805461092590612f7d565b80601f016020809104026020016040519081016040528092919081815260200182805461095190612f7d565b801561099e5780601f106109735761010080835404028352916020019161099e565b820191906000526020600020905b81548152906001019060200180831161098157829003601f168201915b5050505050815250509150506109c4565b80806109ba90612fe0565b9150506107b6565b505b919050565b60606000805b600280549050811015610a9d578373ffffffffffffffffffffffffffffffffffffffff1660028281548110610a2d577f4e487b7100000000000000000000000000000000000000000000000000000000600052603260045260246000fd5b906000526020600020906005020160010160009054906101000a900473ffffffffffffffffffffffffffffffffffffffff1673ffffffffffffffffffffffffffffffffffffffff161415610a8a578180610a8690612fe0565b9250505b8080610a9590612fe0565b9150506109cf565b5060008167ffffffffffffffff811115610ae0577f4e487b7100000000000000000000000000000000000000000000000000000000600052604160045260246000fd5b604051908082528060200260200182016040528015610b1957816020015b610b066122c1565b815260200190600190039081610afe5790505b5090506000805b8251811015610d98578573ffffffffffffffffffffffffffffffffffffffff1660028281548110610b7a577f4e487b7100000000000000000000000000000000000000000000000000000000600052603260045260246000fd5b906000526020600020906005020160010160009054906101000a900473ffffffffffffffffffffffffffffffffffffffff1673ffffffffffffffffffffffffffffffffffffffff161415610d855760028181548110610c02577f4e487b7100000000000000000000000000000000000000000000000000000000600052603260045260246000fd5b90600052602060002090600502016040518060a0016040529081600082015481526020016001820160009054906101000a900473ffffffffffffffffffffffffffffffffffffffff1673ffffffffffffffffffffffffffffffffffffffff1673ffffffffffffffffffffffffffffffffffffffff16815260200160028201548152602001600382018054610c9590612f7d565b80601f0160208091040260200160405190810160405280929190818152602001828054610cc190612f7d565b8015610d0e5780601f10610ce357610100808354040283529160200191610d0e565b820191906000526020600020905b815481529060010190602001808311610cf157829003601f168201915b505050505081526020016004820160009054906101000a900460ff161515151581525050838381518110610d6b577f4e487b7100000000000000000000000000000000000000000000000000000000600052603260045260246000fd5b60200260200101819052508180610d8190612fe0565b9250505b8080610d9090612fe0565b915050610b20565b50819350505050919050565b60028181548110610db457600080fd5b90600052602060002090600502016000915090508060000154908060010160009054906101000a900473ffffffffffffffffffffffffffffffffffffffff1690806002015490806003018054610e0990612f7d565b80601f0160208091040260200160405190810160405280929190818152602001828054610e3590612f7d565b8015610e825780601f10610e5757610100808354040283529160200191610e82565b820191906000526020600020905b815481529060010190602001808311610e6557829003601f168201915b5050505050908060040160009054906101000a900460ff16905085565b60606000805b600180549050811015610f73578373ffffffffffffffffffffffffffffffffffffffff1660018281548110610f03577f4e487b7100000000000000000000000000000000000000000000000000000000600052603260045260246000fd5b906000526020600020906005020160010160009054906101000a900473ffffffffffffffffffffffffffffffffffffffff1673ffffffffffffffffffffffffffffffffffffffff161415610f60578180610f5c90612fe0565b9250505b8080610f6b90612fe0565b915050610ea5565b5060008167ffffffffffffffff811115610fb6577f4e487b7100000000000000000000000000000000000000000000000000000000600052604160045260246000fd5b604051908082528060200260200182016040528015610fef57816020015b610fdc612308565b815260200190600190039081610fd45790505b5090506000805b825181101561126e578573ffffffffffffffffffffffffffffffffffffffff1660018281548110611050577f4e487b7100000000000000000000000000000000000000000000000000000000600052603260045260246000fd5b906000526020600020906005020160010160009054906101000a900473ffffffffffffffffffffffffffffffffffffffff1673ffffffffffffffffffffffffffffffffffffffff16141561125b57600181815481106110d8577f4e487b7100000000000000000000000000000000000000000000000000000000600052603260045260246000fd5b90600052602060002090600502016040518060a0016040529081600082015481526020016001820160009054906101000a900473ffffffffffffffffffffffffffffffffffffffff1673ffffffffffffffffffffffffffffffffffffffff1673ffffffffffffffffffffffffffffffffffffffff16815260200160028201805461116190612f7d565b80601f016020809104026020016040519081016040528092919081815260200182805461118d90612f7d565b80156111da5780601f106111af576101008083540402835291602001916111da565b820191906000526020600020905b8154815290600101906020018083116111bd57829003601f168201915b50505050508152602001600382015481526020016004820160009054906101000a900460ff161515151581525050838381518110611241577f4e487b7100000000000000000000000000000000000000000000000000000000600052603260045260246000fd5b6020026020010181905250818061125790612fe0565b9250505b808061126690612fe0565b915050610ff6565b50819350505050919050565b6000818154811061128a57600080fd5b90600052602060002090600302016000915090508060000154908060010160009054906101000a900473ffffffffffffffffffffffffffffffffffffffff16908060020180546112d990612f7d565b80601f016020809104026020016040519081016040528092919081815260200182805461130590612f7d565b80156113525780601f1061132757610100808354040283529160200191611352565b820191906000526020600020905b81548152906001019060200180831161133557829003601f168201915b5050505050905083565b61136461228a565b60006001836113739190612e9b565b815481106113aa577f4e487b7100000000000000000000000000000000000000000000000000000000600052603260045260246000fd5b9060005260206000209060030201604051806060016040529081600082015481526020016001820160009054906101000a900473ffffffffffffffffffffffffffffffffffffffff1673ffffffffffffffffffffffffffffffffffffffff1673ffffffffffffffffffffffffffffffffffffffff16815260200160028201805461143390612f7d565b80601f016020809104026020016040519081016040528092919081815260200182805461145f90612f7d565b80156114ac5780601f10611481576101008083540402835291602001916114ac565b820191906000526020600020905b81548152906001019060200180831161148f57829003601f168201915b5050505050815250509050919050565b6000600282815481106114f8577f4e487b7100000000000000000000000000000000000000000000000000000000600052603260045260246000fd5b906000526020600020906005020160040160009054906101000a900460ff16611556576040517f08c379a000000000000000000000000000000000000000000000000000000000815260040161154d90612b08565b60405180910390fd5b60028281548110611590577f4e487b7100000000000000000000000000000000000000000000000000000000600052603260045260246000fd5b906000526020600020906005020160010160009054906101000a900473ffffffffffffffffffffffffffffffffffffffff169050919050565b60006115d560036121e0565b60006115e160036121f6565b9050600060405180606001604052808381526020013373ffffffffffffffffffffffffffffffffffffffff1681526020018581525090806001815401808255809150506001900390600052602060002090600302016000909190919091506000820151816000015560208201518160010160006101000a81548173ffffffffffffffffffffffffffffffffffffffff021916908373ffffffffffffffffffffffffffffffffffffffff16021790555060408201518160020190805190602001906116ac929190612204565b505050807f514f49a04456c7bde03bbe8a556f3c4f484146705d8155e61c23ad2aead863fc33856040516116e1929190612a52565b60405180910390a280915050919050565b60606002805480602002602001604051908101604052809291908181526020016000905b8282101561185f57838290600052602060002090600502016040518060a0016040529081600082015481526020016001820160009054906101000a900473ffffffffffffffffffffffffffffffffffffffff1673ffffffffffffffffffffffffffffffffffffffff1673ffffffffffffffffffffffffffffffffffffffff168152602001600282015481526020016003820180546117b390612f7d565b80601f01602080910402602001604051908101604052809291908181526020018280546117df90612f7d565b801561182c5780601f106118015761010080835404028352916020019161182c565b820191906000526020600020905b81548152906001019060200180831161180f57829003601f168201915b505050505081526020016004820160009054906101000a900460ff16151515158152505081526020019060010190611716565b50505050905090565b6118706122c1565b600260018361187f9190612e9b565b815481106118b6577f4e487b7100000000000000000000000000000000000000000000000000000000600052603260045260246000fd5b90600052602060002090600502016040518060a0016040529081600082015481526020016001820160009054906101000a900473ffffffffffffffffffffffffffffffffffffffff1673ffffffffffffffffffffffffffffffffffffffff1673ffffffffffffffffffffffffffffffffffffffff1681526020016002820154815260200160038201805461194990612f7d565b80601f016020809104026020016040519081016040528092919081815260200182805461197590612f7d565b80156119c25780601f10611997576101008083540402835291602001916119c2565b820191906000526020600020905b8154815290600101906020018083116119a557829003601f168201915b505050505081526020016004820160009054906101000a900460ff1615151515815250509050919050565b600660009054906101000a900473ffffffffffffffffffffffffffffffffffffffff1681565b60018181548110611a2357600080fd5b90600052602060002090600502016000915090508060000154908060010160009054906101000a900473ffffffffffffffffffffffffffffffffffffffff1690806002018054611a7290612f7d565b80601f0160208091040260200160405190810160405280929190818152602001828054611a9e90612f7d565b8015611aeb5780601f10611ac057610100808354040283529160200191611aeb565b820191906000526020600020905b815481529060010190602001808311611ace57829003601f168201915b5050505050908060030154908060040160009054906101000a900460ff16905085565b60018281548110611b48577f4e487b7100000000000000000000000000000000000000000000000000000000600052603260045260246000fd5b906000526020600020906005020160040160009054906101000a900460ff16611ba6576040517f08c379a0000000000000000000000000000000000000000000000000000000008152600401611b9d90612ae8565b60405180910390fd5b600060018084611bb69190612e9b565b81548110611bed577f4e487b7100000000000000000000000000000000000000000000000000000000600052603260045260246000fd5b906000526020600020906005020190508060010160009054906101000a900473ffffffffffffffffffffffffffffffffffffffff1673ffffffffffffffffffffffffffffffffffffffff166108fc349081150290604051600060405180830381858888f19350505050158015611c67573d6000803e3d6000fd5b506001816003016000828254611c7d9190612e45565b92505081905550611c8e60056121e0565b6000611c9a60056121f6565b905060026040518060a001604052808381526020013373ffffffffffffffffffffffffffffffffffffffff1681526020018681526020018581526020016001151581525090806001815401808255809150506001900390600052602060002090600502016000909190919091506000820151816000015560208201518160010160006101000a81548173ffffffffffffffffffffffffffffffffffffffff021916908373ffffffffffffffffffffffffffffffffffffffff160217905550604082015181600201556060820151816003019080519060200190611d7e929190612204565b5060808201518160040160006101000a81548160ff02191690831515021790555050503373ffffffffffffffffffffffffffffffffffffffff167f3fbeeae842b82e900ed212eb824be25abbbc0115b88260c7c9a21d843c44a71b828686604051611deb93929190612cd9565b60405180910390a250505050565b60606001805480602002602001604051908101604052809291908181526020016000905b82821015611f6657838290600052602060002090600502016040518060a0016040529081600082015481526020016001820160009054906101000a900473ffffffffffffffffffffffffffffffffffffffff1673ffffffffffffffffffffffffffffffffffffffff1673ffffffffffffffffffffffffffffffffffffffff168152602001600282018054611eb090612f7d565b80601f0160208091040260200160405190810160405280929190818152602001828054611edc90612f7d565b8015611f295780601f10611efe57610100808354040283529160200191611f29565b820191906000526020600020905b815481529060010190602001808311611f0c57829003601f168201915b50505050508152602001600382015481526020016004820160009054906101000a900460ff16151515158152505081526020019060010190611e1d565b50505050905090565b600060028281548110611fab577f4e487b7100000000000000000000000000000000000000000000000000000000600052603260045260246000fd5b906000526020600020906005020160040160009054906101000a900460ff16612009576040517f08c379a000000000000000000000000000000000000000000000000000000000815260040161200090612b08565b60405180910390fd5b60028281548110612043577f4e487b7100000000000000000000000000000000000000000000000000000000600052603260045260246000fd5b9060005260206000209060050201600201549050919050565b612064612308565b600180836120729190612e9b565b815481106120a9577f4e487b7100000000000000000000000000000000000000000000000000000000600052603260045260246000fd5b90600052602060002090600502016040518060a0016040529081600082015481526020016001820160009054906101000a900473ffffffffffffffffffffffffffffffffffffffff1673ffffffffffffffffffffffffffffffffffffffff1673ffffffffffffffffffffffffffffffffffffffff16815260200160028201805461213290612f7d565b80601f016020809104026020016040519081016040528092919081815260200182805461215e90612f7d565b80156121ab5780601f10612180576101008083540402835291602001916121ab565b820191906000526020600020905b81548152906001019060200180831161218e57829003601f168201915b50505050508152602001600382015481526020016004820160009054906101000a900460ff1615151515815250509050919050565b6001816000016000828254019250508190555050565b600081600001549050919050565b82805461221090612f7d565b90600052602060002090601f0160209004810192826122325760008555612279565b82601f1061224b57805160ff1916838001178555612279565b82800160010185558215612279579182015b8281111561227857825182559160200191906001019061225d565b5b509050612286919061234f565b5090565b604051806060016040528060008152602001600073ffffffffffffffffffffffffffffffffffffffff168152602001606081525090565b6040518060a0016040528060008152602001600073ffffffffffffffffffffffffffffffffffffffff16815260200160008152602001606081526020016000151581525090565b6040518060a0016040528060008152602001600073ffffffffffffffffffffffffffffffffffffffff16815260200160608152602001600081526020016000151581525090565b5b80821115612368576000816000905550600101612350565b5090565b600061237f61237a84612d3c565b612d17565b90508281526020810184848401111561239757600080fd5b6123a2848285612f3b565b509392505050565b6000813590506123b981613119565b92915050565b600082601f8301126123d057600080fd5b81356123e084826020860161236c565b91505092915050565b6000813590506123f881613130565b92915050565b60006020828403121561241057600080fd5b600061241e848285016123aa565b91505092915050565b60006020828403121561243957600080fd5b600082013567ffffffffffffffff81111561245357600080fd5b61245f848285016123bf565b91505092915050565b60006020828403121561247a57600080fd5b6000612488848285016123e9565b91505092915050565b600080604083850312156124a457600080fd5b60006124b2858286016123e9565b925050602083013567ffffffffffffffff8111156124cf57600080fd5b6124db858286016123bf565b9150509250929050565b60006124f183836127a1565b905092915050565b6000612505838361288d565b905092915050565b60006125198383612979565b905092915050565b61252a81612ee1565b82525050565b61253981612ee1565b82525050565b61254881612ecf565b82525050565b61255781612ecf565b82525050565b600061256882612d9d565b6125728185612df0565b93508360208202850161258485612d6d565b8060005b858110156125c057848403895281516125a185826124e5565b94506125ac83612dc9565b925060208a01995050600181019050612588565b50829750879550505050505092915050565b60006125dd82612da8565b6125e78185612e01565b9350836020820285016125f985612d7d565b8060005b85811015612635578484038952815161261685826124f9565b945061262183612dd6565b925060208a019950506001810190506125fd565b50829750879550505050505092915050565b600061265282612db3565b61265c8185612e12565b93508360208202850161266e85612d8d565b8060005b858110156126aa578484038952815161268b858261250d565b945061269683612de3565b925060208a01995050600181019050612672565b50829750879550505050505092915050565b6126c581612ef3565b82525050565b6126d481612ef3565b82525050565b6126e381612f29565b82525050565b60006126f482612dbe565b6126fe8185612e23565b935061270e818560208601612f4a565b612717816130b6565b840191505092915050565b600061272d82612dbe565b6127378185612e34565b9350612747818560208601612f4a565b612750816130b6565b840191505092915050565b6000612768601983612e34565b9150612773826130c7565b602082019050919050565b600061278b601a83612e34565b9150612796826130f0565b602082019050919050565b600060a0830160008301516127b96000860182612a19565b5060208301516127cc6020860182612521565b50604083015184820360408601526127e482826126e9565b91505060608301516127f96060860182612a19565b50608083015161280c60808601826126bc565b508091505092915050565b600060a08301600083015161282f6000860182612a19565b5060208301516128426020860182612521565b506040830151848203604086015261285a82826126e9565b915050606083015161286f6060860182612a19565b50608083015161288260808601826126bc565b508091505092915050565b600060a0830160008301516128a56000860182612a19565b5060208301516128b8602086018261253f565b5060408301516128cb6040860182612a19565b50606083015184820360608601526128e382826126e9565b91505060808301516128f860808601826126bc565b508091505092915050565b600060a08301600083015161291b6000860182612a19565b50602083015161292e602086018261253f565b5060408301516129416040860182612a19565b506060830151848203606086015261295982826126e9565b915050608083015161296e60808601826126bc565b508091505092915050565b60006060830160008301516129916000860182612a19565b5060208301516129a4602086018261253f565b50604083015184820360408601526129bc82826126e9565b9150508091505092915050565b60006060830160008301516129e16000860182612a19565b5060208301516129f4602086018261253f565b5060408301518482036040860152612a0c82826126e9565b9150508091505092915050565b612a2281612f1f565b82525050565b612a3181612f1f565b82525050565b6000602082019050612a4c600083018461254e565b92915050565b6000604082019050612a67600083018561254e565b8181036020830152612a798184612722565b90509392505050565b60006020820190508181036000830152612a9c818461255d565b905092915050565b60006020820190508181036000830152612abe81846125d2565b905092915050565b60006020820190508181036000830152612ae08184612647565b905092915050565b60006020820190508181036000830152612b018161275b565b9050919050565b60006020820190508181036000830152612b218161277e565b9050919050565b60006020820190508181036000830152612b428184612817565b905092915050565b60006020820190508181036000830152612b648184612903565b905092915050565b60006020820190508181036000830152612b8681846129c9565b905092915050565b6000602082019050612ba36000830184612a28565b92915050565b600060a082019050612bbe6000830188612a28565b612bcb6020830187612530565b8181036040830152612bdd8186612722565b9050612bec6060830185612a28565b612bf960808301846126cb565b9695505050505050565b6000606082019050612c186000830186612a28565b612c25602083018561254e565b8181036040830152612c378184612722565b9050949350505050565b600060a082019050612c566000830188612a28565b612c63602083018761254e565b612c706040830186612a28565b8181036060830152612c828185612722565b9050612c9160808301846126cb565b9695505050505050565b6000606082019050612cb06000830186612a28565b8181036020830152612cc28185612722565b9050612cd160408301846126da565b949350505050565b6000606082019050612cee6000830186612a28565b612cfb6020830185612a28565b8181036040830152612d0d8184612722565b9050949350505050565b6000612d21612d32565b9050612d2d8282612faf565b919050565b6000604051905090565b600067ffffffffffffffff821115612d5757612d56613087565b5b612d60826130b6565b9050602081019050919050565b6000819050602082019050919050565b6000819050602082019050919050565b6000819050602082019050919050565b600081519050919050565b600081519050919050565b600081519050919050565b600081519050919050565b6000602082019050919050565b6000602082019050919050565b6000602082019050919050565b600082825260208201905092915050565b600082825260208201905092915050565b600082825260208201905092915050565b600082825260208201905092915050565b600082825260208201905092915050565b6000612e5082612f1f565b9150612e5b83612f1f565b9250827fffffffffffffffffffffffffffffffffffffffffffffffffffffffffffffffff03821115612e9057612e8f613029565b5b828201905092915050565b6000612ea682612f1f565b9150612eb183612f1f565b925082821015612ec457612ec3613029565b5b828203905092915050565b6000612eda82612eff565b9050919050565b6000612eec82612eff565b9050919050565b60008115159050919050565b600073ffffffffffffffffffffffffffffffffffffffff82169050919050565b6000819050919050565b6000612f3482612f1f565b9050919050565b82818337600083830152505050565b60005b83811015612f68578082015181840152602081019050612f4d565b83811115612f77576000848401525b50505050565b60006002820490506001821680612f9557607f821691505b60208210811415612fa957612fa8613058565b5b50919050565b612fb8826130b6565b810181811067ffffffffffffffff82111715612fd757612fd6613087565b5b80604052505050565b6000612feb82612f1f565b91507fffffffffffffffffffffffffffffffffffffffffffffffffffffffffffffffff82141561301e5761301d613029565b5b600182019050919050565b7f4e487b7100000000000000000000000000000000000000000000000000000000600052601160045260246000fd5b7f4e487b7100000000000000000000000000000000000000000000000000000000600052602260045260246000fd5b7f4e487b7100000000000000000000000000000000000000000000000000000000600052604160045260246000fd5b6000601f19601f8301169050919050565b7f436f6c6c656374696f6e20646f6573206e6f7420657869737400000000000000600082015250565b7f436572746966696361746520646f6573206e6f74206578697374000000000000600082015250565b61312281612ecf565b811461312d57600080fd5b50565b61313981612f1f565b811461314457600080fd5b5056fea264697066735822122024f923156391f490b8bbe792b45b4b664e381bb2bec8cdaab252040894d76b2264736f6c63430008040033",
  "linkReferences": {},
  "deployedLinkReferences": {}
}